:020000040800F2
:10100000003C0020D54000081D410008994E000812
:101010009D4E0008A14E0008A54E000800000000EB
:10102000000000000000000000000000A94E0008C1
:10103000AD4E000800000000B14E0008B54E00089B
:101040001D4100081D4100081D4100081D41000808
:101050001D4100081D4100081D410008F94F00080E
:1010600000000000B94E00081D410008E14E0008D4
:10107000554F00081D4100081D41000800000000F8
:10108000D54F00081D410008000000009D4F0008DA
:10109000BD4F0008AD4F00081D4100081D4100086C
:1010A0001D4100081D4100081D410008D14F0008E6
:1010B0001D410008000000000000000000000000CA
:0C10C0001D410008000000001D41000858
:1010CC0053B94AB9002908BF00281CBF4FF0FF31A3
:1010DC004FF0FF3000F00CB8ADF1080C6DE904CE08
:1010EC0004F04CFEDDF804E0DDE9022304B07047A7
:1010FC00704700BF10B5054C237833B9044B13B1BE
:10110C000448AFF300800123237010BD3808002081
:10111C0000000000B060000808B5034B1BB1034988
:10112C000348AFF3008008BD000000003C0800201D
:10113C00B0600008AF4BB04AB3F87CC018882DE9FA
:10114C00F04FACEB00011588AC4C89B24A098D42CA
:10115C0087B02180628080F0E580A94D2D888D427A
:10116C0040F2E0805968DFF89C820F1AD3E9020143
:10117C00BFB2081A80B2BA422CBF002701278242A4
:10118C002CBF002101210591A160D3E90451A1EBF1
:10119C00050ED3E90651A1EB050AD3E908511FFA54
:1011AC008EFE1FFA8AFA7245A1EB050189B22CBF9B
:1011BC004FF0000E4FF0010E52452CBF4FF0000ABD
:1011CC004FF0010A8A422CBF002101210491616178
:1011DC00D3E90A51491B89B28A42D3E90C51A1EBDC
:1011EC00050189B22CBF002001208A422CBF0025AA
:1011FC0001250295E561D3E90E51491B89B28A425A
:10120C00D3E91051A1EB050189B22CBF00260126B0
:10121C008A422CBF4FF0000B4FF0010B0390A061E2
:10122C00019626626760C4F80CE0C4F810A0C4F8FC
:10123C0024B0D3E912514D1BD3E914618E1B00214C
:10124C00A8F80010D3E91A01ADB2B6B2AA42A1EBCC
:10125C00000189B22CBF00250125B2422CBF00260B
:10126C0001268A422CBF002101214FEA8108A1638B
:10127C00D3E91691A1EB0909D3E918011FFA89F9F1
:10128C00091A89B24A452CBF4FF000094FF00109E9
:10129C008A422CBF0021012148EAC1086163996F81
:1012AC000398C4F83090ACEB010189B28A422CBF90
:1012BC000021012148EA01082164D3E91C31CB1A31
:1012CC009BB29A422CBF00230123E36348EA4308F4
:1012DC00059B4D49A56243406B409A00049B0198C5
:1012EC00E6627B408BEA030342EAC30380EA0A020C
:1012FC0089EA0209029A43EA090382EA0E0986EA9C
:10130C00090943EA49090B787BB1404B1B7883B937
:10131C00C84513D0B4F8543000220133A4F854302B
:10132C0084F8482007B0BDE8F08F384B1A78002AB3
:10133C0076D0C8F10F085FFA88F8E9E7B4F84630C0
:10134C0030480133A4F84630236B0022012B028075
:10135C0004BF2F4A1370059B049A5B0243EA872350
:10136C00334343EA0E2343EACA1343EA8213039A34
:10137C0043EA4213029A43EA0213019A43EAC20374
:10138C0094F8482043EA8B0343EA4505FAB92F2D1C
:10139C0067DD94F84D30002B40F09A801D4E357867
:1013AC00002DBFD01C4B1B78002BBBD10B78002B16
:1013BC00B8D094F85030AB4200F09180052D84F8F1
:1013CC00505040F29780012384F84E30AAE7012A4E
:1013DC0078D0022A70D0032AA4D1252DA2D10F498E
:1013EC00B4F84A2094F84C008854002384F8483010
:1013FC0098E700BF3407002020070020C803002016
:10140C00C0030020B00600207C060020C10600208E
:10141C00AA060020DC06002064060020000500203F
:10142C00019303F025FD019B6E4918B394F84420F9
:10143C000132D2B2642A84F844201BD901221A70DA
:10144C00D4E90173059363690493A3690393E36976
:10145C000293236AE66A0193D4E903EAD4E909B555
:10146C0067E76B1E2E2B16D85F4B604E1A80EDB2C1
:10147C00357097E7D4E90172059262690492A2690A
:10148C000392E2690292226AE66A0192D4E903EAC3
:10149C00D4E909B53AE7002D80D194F84F30524980
:1014AC00524A012B4FF0000308BF84F84D500B80BB
:1014BC00137084F84E3035E7032384F84C5084F8CD
:1014CC0048302FE70223A4F84A5084F8483029E723
:1014DC004549464B0D801A7084F84E2022E7052DA5
:1014EC0008D994F84E300133DBB2052B84F84E301A
:1014FC007FF618AF0023013D84F84E30232D16D80B
:10150C00DFE805F0126C6864605C554E4A46153E87
:10151C00322B1515151515241F1515151515151523
:10152C00151515151515151B314B01221A70314A5D
:10153C003178117000233370F4E6012384F84830BD
:10154C00F5E72D4A2D4B527C1A70F0E72A4B2B4AAB
:10155C005B7CC3F101031370E9E70022012384F8DB
:10156C00512084F85330E2E794F84F300122934233
:10157C0084F8512084F85220D9D184F84D30D6E724
:10158C0000F00AFC1C4B1A4A5B7C01331370CEE74B
:10159C00194B01229A74CAE7174B00229A74C6E7BA
:1015AC001549164B0120002248741A70BFE71249E6
:1015BC00124B0020012248741A70B8E7104B01221C
:1015CC001A70B4E70A4B05221A70B0E7084B0422D4
:1015DC001A70ACE7064B03221A70A8E7044B0222E0
:1015EC001A70A4E77C06002066060020DC060020AA
:1015FC0082060020DD06002000050020540000209B
:10160C00C606002030B5824D95F85130002B36D1EE
:10161C0095F85230002B3DD095F85330002285F8C8
:10162C005220002B00F0C08000237A4C85F85330F8
:10163C004EF6F173012285F85E20774A774892F8CE
:10164C0000E06B6605EB8E03802200EB8E001A67C0
:10165C001146AC66043013224FF0010C0CFA02F365
:10166C002340D34083EAD111013AC901531C40F8FD
:10167C00041FF3D105EB8E050023EB6630BD95F806
:10168C005E40002C49D095F85230002285F85E203F
:10169C00002BC1D195F85330002BC5D1604B1B7872
:1016AC00002B00F08580C30B024640F0838083132F
:1016BC00012B00F0A3804313012B00F0A180031336
:1016CC00012B00F09980C312012B00F09F80831234
:1016DC00012B00F099804312012B00F09380002322
:1016EC002B66030A83EA10134340DB4303F00F031A
:1016FC0043EA021319134B4A03F00F00515C145CBC
:10170C0044EAC134C3F30321515C44EA8124C3F39A
:10171C000311525C44EA42148FE7B5F85C30B5F81B
:10172C005A20B5F8581001339BB20132013192B2F4
:10173C0089B2272BA5F85C30A5F85A20A5F85810CB
:10174C0041D8C72A4ED9384A384B1288A5F85A4086
:10175C00A3FB0232C2F3C70242F4806295F8523006
:10176C00002B7FF459AF95F85330002B7FF45CAF0E
:10177C00110A81EA12115140C9432A4801F00F01A4
:10178C00C2F3132441EA021310F804C0445CC2F300
:10179C00031102F00F02415C825C44EACC3444EA4F
:1017AC00812444EA421445E7214C4EF2010341E7FF
:1017BC004FF6FF720F21083942FA01F343EA412236
:1017CC00296690B28DE71B4B1849B3F90030A5F888
:1017DC005C4081FB0321DA17C2EB2112D2B242F436
:1017EC00C062BBE7C7297FF613AF134BA5F858406F
:1017FC001A7842F40072B1E70C21DCE70E21DAE72B
:10180C000D21D8E70921D6E70A21D4E70B21D2E72D
:10181C00C8030020FB3D0700C30300203404002054
:10182C0064060020C8600008A60600201F85EB5146
:10183C003B670700AC060020C206002030B5039CB5
:10184C0005468D4209DC13E0A34213D0B1EB6C0FBB
:10185C000DD0754510DC0446724601EB020C1819CC
:10186C0095424FEA6C0E4FEA6000EDDB204630BD2E
:10187C009542FBDA184630BD0EF101010346E0E754
:10188C000346401A48BFC81A704700BF04494A6A49
:10189C0080B292B24B6A9B1A9BB28342FAD37047C6
:1018AC000048014000F1FF3C58B106494A6A92B227
:1018BC004B6A9B1A9BB2B3F57A7FF9D3BCF1010C3E
:1018CC00F4D2704700480140002965D00139421E0E
:1018DC0050FA81F1002027E0C3B240B2002831DB7E
:1018EC005800C3B240B2002833DB5800C3B240B238
:1018FC00002835DB5800C3B240B2002837DB580053
:10190C00C3B240B2002839DB5800C3B240B2002841
:10191C003BDB5B00D8B25BB24000002BB8BF80F061
:10192C0007008A42C0B236D012F8013F584010F07E
:10193C00800F4FEA4000CFD080F0070358B2002848
:10194C00DBB2CDDA5B0083F0070358B20028DBB2C0
:10195C00CBDA5B0083F0070358B20028DBB2C9DA9C
:10196C005B0083F0070358B20028DBB2C7DA5B00D8
:10197C0083F0070358B20028DBB2C5DA5B0083F0B2
:10198C00070358B20028DBB2C3DA580080F0070016
:10199C0043B2C0B2C0E7704708467047026803FB09
:1019AC0003F303EB430C22EA0C0201FB03F3134396
:1019BC000360704703FB03F310B4046803FB01F1ED
:1019CC0003FB02F203EB430324EA03040C4304601D
:1019DC00C16810BC21EA03031343C360704700BF06
:1019EC0010B50C4CBDF808C0A170090A6170110A41
:1019FC00E170190A2070227161714FEA1C220921D1
:101A0C002046A371E27184F808C0FFF75DFF607295
:101A1C0010BD00BFCC04002070B50B4C0B4E04F174
:101A2C003005B64620686168A268E368F446ACE805
:101A3C000F001034AC42E646F4D104483021FFF7D5
:101A4C0043FF86F8300070BD00050020CC04002058
:101A5C00BFF34F8F0549064BCA6802F4E06213438B
:101A6C00CB60BFF34F8F00BFFDE700BF00ED00E080
:101A7C000400FA0570B5BB4CBB4D82B02968C0227E
:101A8C00204603F065FB6378022B40F21581A279A6
:101A9C00511EC9B2E37D2A2B55D8181F052852D9DF
:101AAC00032B55D90A3BDBB2202B56D9237EA3F14D
:101ABC000800C0B2882858D803EB8303AB48AC4E5F
:101ACC0003EB83039B00A0FB03033129A9484FEAD6
:101ADC009303B0FBF3F3F362AB804DD802EB8202BD
:101AEC00520002F5C87189B2637E2A81A3F13200DB
:101AFC00642898BFD218A37EA98103EB83034FEA15
:101B0C00C30303F1140398BF92B20220EB816A81E4
:101B1C0002F002F96378002B38D1E8894FF4FA739C
:101B2C00009340F6B8324FF47A734FF49671FFF786
:101B3C0085FEA37CA5F8500013B34FF47A73C4F858
:101B4C00C83002B070BD1020032B84F8C000A9D897
:101B5C00DB00DBB203F10A00E07584F8C030237EB1
:101B6C00A3F10800C0B28828A6D9814841F2873376
:101B7C003129EB80C362B1D94FF4C8710022B3E7AD
:101B8C004FF4FA63C4F8C83002B070BDA07F0B28C4
:101B9C0088BF052002F0C0F894F8213094F820207A
:101BAC0094F8221094F82300A87503F26B335B00B1
:101BBC006B8294F82830053B142B84BF052384F8E2
:101BCC00283094F8293002F27712013B5200092B8D
:101BDC002A8294F8252088BF0A2302F1FA0288BFD2
:101BEC0084F8293094F82A302A83002284F827209C
:101BFC005A1E01F25E51082AA98269D90A2384F877
:101C0C002A3094F82B30617AE27AA07AA862463BAB
:101C1C00462B84BFFF2384F82B3094F82C30013BE7
:101C2C00622B9CBF012384F8C13094F82D30013B0A
:101C3C00092B84BF052384F82D3094F82E304900ED
:101C4C005200092B6962EA6206D8042B0CD8DFE833
:101C5C0003F0039B840B7B00474A0023012184F88B
:101C6C00C23084F8C33011706379092B4CD8092227
:101C7C0084F8C42085F8483085F8493085F84A3016
:101C8C00E8893E4AE17EB0F5967F3CBF002385F89B
:101C9C004B302023B3FBF1F1A2FB0032334B520942
:101CAC00B2FBF1F2A5F84C20A3FB0023DB08B3FB3D
:101CBC00F1F3A5F84E3031E7314AC4F80520002184
:101CCC004FF06413C4F80930C4F80D100122E1E69A
:101CDC00C3EB4312C3EB82035B001F3BDBB2C82B8D
:101CEC002ED8AB769AB2698911446981298911443D
:101CFC002981A98B1144A983A9890A441C49AA8169
:101D0C004A6C13434B647CE7002284F8C42095F89A
:101D1C004810A2F13332A2FB0323DA08B1EBD30F44
:101D2C0088BF85F8482095F849309A4238BF85F825
:101D3C00492095F84A309A4238BF85F84A209FE7E7
:101D4C00C8221346AA76CEE70E490B4A01230B7024
:101D5C000021117084F8C23086E7012384F8C33067
:101D6C0082E700BF0005002000000020ABAAAAAA51
:101D7C00002C0140F0821E00150400201F85EB5141
:101D8C00A001000A17040020024A012384F8C23083
:101D9C00137069E715040020024B03481A68C02130
:101DAC0003F07AB9000000200005002038B5294C5A
:101DBC0094F85430012B3DD094F85530264D5A1ED2
:101DCC0012F0FF0224D084F8552003F0010384F8AC
:101DDC00523072B695F83F313BB362B603F034F92A
:101DEC00D5F8C830D5F84021A16D03F5FA739342AC
:101DFC003CBF012384F8563094F8553005EB43036F
:101E0C00002285F83C2185F84421A3F8461138BD01
:101E1C000123062284F8552085F83E3184F852308F
:101E2C0072B695F83F31002BD7D194F8550003F0DA
:101E3C0065FCD2E794F85520074D0132D2B2062A40
:101E4C0099BF84F8552002F0010384F8553085F8C9
:101E5C003E31BCE700000020000500201C4AD3687E
:101E6C0023F0010310B51B4CD360FFF79FFF1A49F9
:101E7C00B4F85601B4F854218B6D024403EB5203B1
:101E8C0094F82F2058088865C2B994F8C02000FB3C
:101E9C0002F2C2F38F1291F85610A4F85A21C2EB39
:101EAC009303A4F85C3181B1D4F8603142F20F7223
:101EBC0093429CBF0133C4F8603110BD94F8582193
:101ECC0000FB02F2C2F38F12E5E703F0B5F8EBE783
:101EDC0000440140000500200000002038B5174DDB
:101EEC0095F85C3073B1002403E095F85C30A342A4
:101EFC0008DD03F08DF895F85230834204F10104AB
:101F0C00F3D138BD72B603F08BF80D4A0D48B2F818
:101F1C005C11446AB2F856510B4BA2F85451A2F81A
:101F2C0056410131002242625A62D9621A61DA6862
:101F3C0042F00102DA6062B638BD00BF000000203A
:101F4C0000050020001000400044014070B5C84C52
:101F5C00A37C82B07BB394F8C230002B00F090804D
:101F6C00C44D94F82630002B40F06481B4F86621FF
:101F7C00B2F5836F80F09782A2F130039BB2B3F578
:101F8C007A7F10D2617C95F85460C1F101008642D1
:101F9C0000F02D8395F85D105B009BB2C1F12F0111
:101FAC000B44A4F868312F2A0AD80023A4F868310E
:101FBC0084F86F3104E0B4F86631AE4DA4F86831A2
:101FCC0094F8702195F85E309A4203D9A37D002BCA
:101FDC0040F0E380E67CAEB3B4F868011D2800F253
:101FEC00C7800023A4F8723194F8283003EB8303E4
:101FFC00B0EB830F4FEA830180F2C68094F86E3108
:10200C00002B40F0AE8094F87C31002B00F0A980BE
:10201C00E27CB4F8720150232E2113FB021383428D
:10202C00C0F22C8194F88231002B00F0C981013B65
:10203C00042B00F2C281DFE813F0BE019D039A036A
:10204C009703BE0194F87431002B00F08C8094F847
:10205C007531002B40F06681D4F878218649D3176E
:10206C0081FB0212C3EB22339BB2B3F5006FA4F8D1
:10207C007231C0F0DB8140F2FF73A4F87231BDE71E
:10208C0094F826207B4DB4F86601002A00F090806D
:10209C00AE7D760006F57A7188421CDD667C95F87B
:1020AC005420B24200F03D8394F83F31002B40F0B5
:1020BC00BB80002384F86A3140F2FF7300934FF425
:1020CC00FA622F23FFF7BAFBAE7D0346B4F8660124
:1020DC00A4F868317600C6F57A72824221DD637C01
:1020EC0095F85460C3F101018E4200F0DD8294F842
:1020FC003F31002B40F098802F230021009340F2B9
:10210C00FF7384F86A11FFF799FBAE7D03467600E6
:10211C00B4F86601A4F86831C6F57A739842C0F237
:10212C00838006F57A76B0427EDC94F83F2100235A
:10213C00A4F86831002A77D0012284F83F3184F862
:10214C006A2171E0E17C2E22502313FB0123B4F8A9
:10215C0072219342BFF666AF94F83F61002E00F0F7
:10216C00C28102B070BDB4F86831A4F8723145E791
:10217C001E283FF439AF94F8282002EB820292001B
:10218C0090421146C0F2ED8040F2FF720092A02303
:10219C00FFF754FBA4F8720130E703F071FA02F078
:1021AC003FFF00226623A4F8722184F8703125E7E2
:1021BC00AA7D520002F57A71884240F38981637CD2
:1021CC0095F854209A4200F04F8240F2FF7300932E
:1021DC004FF4FA622F23FFF731FBAB7D02465B0015
:1021EC00B4F86601A4F86821C3F57A72824240F310
:1021FC00F881637C95F85460C3F101018E4200F0C4
:10220C0074822F230093002140F2FF73FFF716FB1B
:10221C00AB7D02465B00B4F86601A4F86821C3F5F7
:10222C007A72904280F2DD8194F8C230002B3FF438
:10223C00C7AE96E6B4F86631B3F5836FC0F09D80F7
:10224C00617C95F854208A4200F07D8294F83F21FD
:10225C00002A7FF4B5AE95F85D206FF40060C2EBF8
:10226C0043030021034484F86A11A4F86831A7E6FB
:10227C000005002000000020AD8BDB6894F8643171
:10228C00002B00F03F81002A00F030812B894FF4A5
:10229C00FA620092283340F2FF728921FFF7CEFADE
:1022AC00A4F8800194F82630002B7FF44BAFE07C2F
:1022BC00B4F8721184F83F3150222E2312FB0033F4
:1022CC0099427FF7AFAE2E2907D9627F1E231341A7
:1022DC00D4F86021934200F26181B4F88031B5F8F2
:1022EC0092209A423CBFA4F88021134694F8C12056
:1022FC0032B1B5F994209342C4BF93B2A4F88031A3
:10230C00D4F88C21002A7FF72CAF2F297FF629AF28
:10231C00C548D11780FB0202C1EB22321344A4F84A
:10232C0080311EE7D5E91832B4F8680100922F21EC
:10233C0040F2FF72FFF782FAB4F86821BB4B93FBB3
:10234C00F0F3E07E2E2A4FEA500093FBF0F3A4F852
:10235C0076313FF681AEA4F87261AE66C4F878614E
:10236C004CE6A02300931E212F23FFF767FA0346A8
:10237C00A4F87231B4F8680136E6303B9BB2B3F581
:10238C007A7F80F08280627C95F85400C2F1010162
:10239C00884200F09A8194F83F21002A7FF410AE15
:1023AC0095F85D20C2EB430300212F3384F86A11AA
:1023BC00A4F8683104E601F0EDFD002384F88231C5
:1023CC00237D002B39D194F86421A4F88031002AA4
:1023DC0000F0F38094F82630002B3FF4BDAE94F857
:1023EC003F31002B7FD094F8C230002B00F0F581E8
:1023FC00B4F86611A1F130039AB2B2F57A7F80F08D
:10240C000D8295F85D30C3EB42032F339BB2A4F8D9
:10241C00843140F2CE72934240F2DC8103F006FB31
:10242C0094F83F61002E7FF49CAE5CE02F2B3FF6BE
:10243C00E5AD3023A4F87231E0E594F86431002B5B
:10244C0073D1267FC4F86031012285F8562084F8B8
:10245C003D31002E67D0E17C002967D1012E65D17A
:10246C0094F8293003EB830303EB8303DB009BB26B
:10247C0040F2CE729342A4F8843140F2E18103F031
:10248C00D5FAE17C94F83F6152E094F83F210023A7
:10249C00A4F86831002A3FF493AD012284F83F314F
:1024AC0084F86A218CE5637C95F85410994200F00D
:1024BC00BF8095F85D00A2F58361490089B2C0F137
:1024CC002F00A2F1300301449BB2A4F8681156E529
:1024DC00C2F57A729042FFF68CAE0023A4F86831F4
:1024EC0084F86F31A0E6B4F87211ECE64FF4FA629E
:1024FC0000922B8940F2FF722F21FFF79FF9A4F86D
:10250C008001CFE603F0BCF895F85630002B00F0B4
:10251C0058816B89E27CB4F87201A4F87E310121F8
:10252C0084F86411AFE603F0ABF8E17C94F83F61FA
:10253C0095F85530013BC3EB0312B5F8903003EB23
:10254C0082031AB2B2F5B47F9BB2A6BFA3F5B473E3
:10255C009BB2A4F8862103F1770212B2A8BFA4F8AB
:10256C008631B2F5B47FA8BFA3F1F102A4F888219B
:10257C0003F1EF0212B2B2F5B47FA6BF793BA4F817
:10258C008A31A4F88A210023012908BF84F86E112E
:10259C00A4F88031002E7FF4E4ADA4E7B4F88031C8
:1025AC006A8993423CBFA4F880211346AA899A42B7
:1025BC003CBFA4F88021134691E6237FC4F8602128
:1025CC00012185F85610002B40F0018194F83F3121
:1025DC00002B00F0138194F82630002B7FF403AF0E
:1025EC00BFE503F57A738342FFF61EAE75E7B5F8C7
:1025FC005020AB6D9A4280F0C080B4F86C31C72B80
:10260C0000F2BB800123002685F85630C4F86061C7
:10261C0085F8541002F004FDB4F8662184F86F615B
:10262C00A2F13003B6E400BFAD8BDB6800879303E7
:10263C00B5F85010AA6D914280F0B180B4F86C21BD
:10264C00C72A00F2AC800122C3F10103002685F8F1
:10265C00562085F85430C4F8606102F0E1FCB4F8FF
:10266C00662184F86F6124E7B5F85000AA6D90429A
:10267C0080F08B80B4F86C21C72A00F28680C3F1FD
:10268C0001030026012285F85430C4F8606185F8F6
:10269C00562002F0C5FCA97DB4F8660184F86F6180
:1026AC00490001F57A7190E594F86A6100214FF0C8
:1026BC00010CA4F8681184F83FC1002E3FF4B4ADAE
:1026CC0085F8543084F83F1116E594F86A0100211E
:1026DC000126A4F8681184F83F6100283FF470AC1F
:1026EC0085F8542084F83F115AE6B5F85000A96DCE
:1026FC0088425DD2B4F86C11C72959D80122002642
:10270C0085F85620C4F8606185F8543002F088FCD6
:10271C00AA7DB4F8660184F86F615200C2F57A7232
:10272C006FE594F86A61A4F868314FF0010C84F8F5
:10273C003FC1002E3FF478ADACEB020284F83F3180
:10274C0085F85420B5E494F86A0100210126A4F818
:10275C00681184F83F6100283FF432ACB21A85F856
:10276C00542084F83F1176E501F0A6FB25E601F034
:10277C0071FC22E601F03EFC1FE694F86E31002B52
:10278C007FF440AFA4F866310FE494F86E21002A70
:10279C007FF475AF4FF47A70A4F8660115E594F8E0
:1027AC006E21002A7FF44FAFA4F86621FFF7FDBB22
:1027BC0094F86E110029A1D14FF47A70A4F8660137
:1027CC001FE594F86431E3B102F036FCA1E603F0A6
:1027DC002DF9FFE502F01CFFBEE4B4F866114FF4CE
:1027EC007A70FFF74DF894F8C22000F57A739BB21B
:1027FC00A4F88431002A3FF40CAEF9E502F040FF56
:10280C00E8E5FFF7D3FA114B42F2107141F288322E
:10281C00A9655A62012384F86431D5E7B1F5836F59
:10282C0038BFB4F88431FFF4F4AD95F85D306FF433
:10283C000062C3EB410313449BB2A4F88431E8E576
:10284C0002F0E6FEE17C84F83F6171E60010004086
:10285C0010B50E4C94F89031012B0DD0022B03D0F7
:10286C00BDE81040FFF772BBB4F89401FEF7CAFE46
:10287C00002384F8903110BDFEF75CFC002384F833
:10288C009031BDE81040FFF761BB00BF0005002090
:10289C00F8B54F4E4F4F96F85410002977D1B7F832
:1028AC00863101331AB2B7F888310133B2F5B47FEF
:1028BC001BB2B2BFA7F88621A7F886110A46B3F55A
:1028CC00B47FA8BF0023A7F88831B7F88A31013349
:1028DC001BB2B3F5B47F77DAA7F88A3106EB420264
:1028EC00B6F86813B2F99830B0883B4D3B4C0B44AA
:1028FC0000FB03F385FB0312D81797F82D30C0EBC0
:10290C00E21003FB00F0C31784FB0020C3EBA00014
:10291C0080B202F0DFFDB7F98831B6F8680306EB38
:10292C004303B3F9982097F82D300244B08800FB8C
:10293C0002F285FB0201D017C0EBE11003FB00F0A3
:10294C0084FB0023C017C0EBA30080B202F0C8FDCB
:10295C00B7F98A31B6F8680397F82D2006EB4303D4
:10296C00B3F998300344B08800FB03F385FB0315DF
:10297C00D817C0EBE51002FB00F084FB0034C01745
:10298C00C0EBA40080B2BDE8F84002F0AFBDB7F8D0
:10299C008621B7F88831013A12B2013B1BB2002AEA
:1029AC00B8BF40F26712002BB8BF40F26713A7F80C
:1029BC008831B7F88A31A7F88621013B1BB2002B6E
:1029CC00B8BF40F2671387E70023A7F88A3185E781
:1029DC000000002000050020D34D6210676666667B
:1029EC0038B5254D2549AB6D4A6A254C03EB43039D
:1029FC0013FA82F3A4F8562100224A6294F8C020FC
:102A0C00980800FB02F2C2F38F12C2EBD303A4F8B6
:102A1C005A21D4F86021A8659BB2042AA4F85C3131
:102A2C0027D94A6A9A42FCD3FFF7C0F9D4F860312F
:102A3C00607F94F826100022013384F83C2184F83E
:102A4C003D2150EA0102C4F8603105D1D4F8C830F8
:102A5C00AA6D9A4206D338BD132BFCD9AB6DB3F5D6
:102A6C00FA6FF8D8002385F85630BDE8384002F0EC
:102A7C00E3BA4B6AD8E700BF00000020001000400A
:102A8C0000050020F8B5914CB4F89801B4F89A31CF
:102A9C00B4F89C11B4F89E21B4F88051A4F86C5190
:102AAC0001300133A4F89801A4F89A3194F8A001EC
:102ABC0094F87C31013101320343A4F89C11A4F841
:102ACC009E2141D194F8A121002A3DD0B4F868513F
:102ADC00002D40F0D281B4F8A23101339BB244F600
:102AEC0020618B42A4F8A2312ED9B4F8A4311E2B4C
:102AFC0040F24F8294F8243001218B4284F87C11EF
:102B0C0040F04C82B4F8A61171484B08A0FB03238B
:102B1C00DB09B1F5B97F84F8A0310DD36D4F4AF6BE
:102B2C00AA2601F001FA6420FEF7BCFE94F8A0314D
:102B3C003E600135AB42F4DC94F8C33094F8C2200B
:102B4C00134301D184F82630E17F79B1624BB4F89C
:102B5C00A82193F86A33013B01320B4492B203EB88
:102B6C008303B2EB830FA4F8A8217ADC94F86E618E
:102B7C00002E51D1584D95F8563023B194F864314C
:102B8C00002B40F04281B4F89E31142B19D994F8E3
:102B9C00C1300121002284F8AB11A4F89E21002B36
:102BAC0000F0A08094F86431002B40F07D81637FAD
:102BBC003BB994F8743123B194F86431002B40F094
:102BCC00E28094F8C430B4F89C219A422AD8B4F824
:102BDC007E21A4F86C2194F87C311BB194F864111B
:102BEC00002954D194F83F11002941D0E988B4F858
:102BFC0084313A4801FB03F380FB0350DB17A3EB52
:102C0C00E0130B449BB2A4F8AE313548A4F87E21F6
:102C1C00C0E90D33C162C363B4F8B0310133A4F819
:102C2C00B031F8BDD4F86031B4F87E110022952B88
:102C3C00A4F89C213BD895F84830DBB285F8983342
:102C4C00B4F86C21501A984203DDCA1892B2A4F859
:102C5C006C21881A8342BEDACB1A9AB2A4F86C2182
:102C6C00B9E70122002384F8AA21A4F8A8317DE752
:102C7C00207F022800F0EA80E988184801FB02F363
:102C8C00A0FB0303C3F3CF13A4F8AE31BDE7B4F834
:102C9C0072112F29A6D9E988104801FB02F3A0FB79
:102CAC000303DB0901339BB2A4F8AE31ADE79529E0
:102CBC00C1D9D4F84031B3F5FA7F8CBF95F84930BF
:102CCC0095F84A30DBB285F89833B9E70005002057
:102CDC00B9D31FB10030004000000020D34D62106A
:102CEC00002C0140637F002B3FF463AF94F86431F8
:102CFC00002B3FF466AFAB6DB5F86E23D5F880139F
:102D0C00D5F878039A1AD5F89033C5F8702300FBE0
:102D1C0002119942C5F88013C4BF1946C5F8803317
:102D2C005B428B42C4BF1946C5F88033D5F8883353
:102D3C00D5F87C03C5F88823D31A00FB03F3D5F828
:102D4C007403C5F8843300FB0233D5F894230B4489
:102D5C009342C5F88C33C4BF1346C5F88C2352423A
:102D6C009A42D4F88C11C4BFC5F88C2313468E4AF2
:102D7C000B44934240F30181C4F88C2194F87431D4
:102D8C00002B3FF41EAFD4F89431B4F87621A96F20
:102D9C00286F9A1AD5F88830AA6600FB021199425E
:102DAC00A967C4BF1946AB675B428B42C4BF1946C7
:102DBC00AB67D5F88030686FC5F88020D31A00FB5C
:102DCC0003F3E86EEB6700FB0233D5F88C200B4461
:102DDC009342C5F88430C4BF1346C5F884205242D0
:102DEC009A42D4F87811C4BFC5F8842013466F4AB0
:102DFC000B44934240F3C780C4F87821D4F8603177
:102E0C00632B9CBF0023AB67DBE602F009F902F0F1
:102E1C00FFF895F852309BBB002800F0938094F893
:102E2C003C31013384F83C3194F84431002B7FF46D
:102E3C00AAAE94F83C2195F86C339A427FF6A3AE77
:102E4C00012384F84431FFF7CBFD9CE6002B3FF4C3
:102E5C0013AF02F053FCE988237B554A01FB03F3C3
:102E6C00A2FB0323DB0903EB83035B004B339BB215
:102E7C00B4F86C21A4F8AE31C7E6A4F8A23163E62D
:102E8C0000286DD194F83C31013384F83C3194F82E
:102E9C004431002B7FF477AE94F83C2195F86B33DA
:102EAC009A427FF670AECBE794F82C20B4F9AC3193
:102EBC00296BA86A02EB820202EB8202A3EBC2022C
:102ECC002B6C2A6200FB021199422963C4BF19467C
:102EDC002B635B428B42C4BF19462B63AB6BE86A16
:102EEC00AA63D31A00FB03F3686A6B6300FB02331B
:102EFC006A6C0B449342EB63C4BF1346EA635242C1
:102F0C009A422C49C4BFEA631346DA1781FB0313B8
:102F1C00C2EB2332B5F8943029899B1A1BB28B4231
:102F2C00A5F89430BCBF0BB2A5F89430B3F5FA6F8A
:102F3C0003DD4FF4FA63A5F89430637F002B7FF424
:102F4C00DAAE1BE794F83D3195F853200133DBB230
:102F5C009A4284F83D31BFF467AF84F83C0112E625
:102F6C0094F83D3195F853200133DBB29A4284F842
:102F7C003D318CD284F83C6105E6002B11DC00233A
:102F8C00C4F88C31FAE6002BB8BF0023C4F87831B2
:102F9C0034E784F8A151A4F8A251D5E500F0C4FFA0
:102FAC00CAE5C4F88C31E9E660E31600F058380144
:102FBC00D34D6210AD8BDB682DE9F04F85B002F07C
:102FCC00FBF84FF47063B44AD3F8E010914205D18A
:102FDC00B24AD3F8E410914200F0F983B04DB14CF1
:102FEC0002F0C6F902F098FAFEF744FDE378022BE2
:102FFC0003D12379142B00F0228441F202410323E4
:10300C00A4F803102A68A7486370C02102F044F8A2
:10301C00637C227DA988E980013B18BF012385F8D8
:10302C00543002B9E27494F82630A3B12989B5F86A
:10303C009A236B89323101204FF47A76298132320E
:10304C0032330021AE8385F84B00C4F81200A17511
:10305C00A5F89A236B8100F0EDFE0023A4F8A431AF
:10306C0002F0E8F8904B4AF6AA221A6001F07CFEB6
:10307C0094F8753113B1012384F8743101F0FEFE1C
:10308C00894FDFF82892DFF82882DFF828A24AF669
:10309C00AA26B4F84A11B4F84831B4F84C21B4F863
:1030AC004E010B441344B4F85011B4F852210344AC
:1030BC000B441344D4F8602104335B10042AC4F885
:1030CC00943100F2DD81A37C002B00F05F8204239D
:1030DC0085F86B3385F86C33637D3E60012B00F013
:1030EC00D981022B00F0E381B4F8B03142F21072B6
:1030FC00934209D994F87C11002940F04F8349F68A
:10310C004042934200F27083B4F8982144F6206355
:10311C009A4210D9B4F9AC31D4F8B4211B0489FB10
:10312C0003011944DB17C3EB212313440022C4F819
:10313C00B431A4F89821D4F86021B2F57A7F40F22A
:10314C00C9810021B4F8683184F87011C72B40F2A2
:10315C002382E17C11B19F2B40F2C78194F8B81106
:10316C00002900F0B081B3F5C87FC0F0C581D4F858
:10317C00943194F83E0188FB03C1A1EBE371C4F8D0
:10318C00401110B10A2A00F2258294F8C131002BAB
:10319C0000F09A80AB6D322B40F29680464B102299
:1031AC00002183F80B1383F8152383F80C2394F870
:1031BC00AAB1BBF1000F40F0968094F8C631002BF9
:1031CC0040F0EE8194F8ABB1BBF1010F00F0A5809B
:1031DC0094F86E314FF0000B84F8D7B1002B40F00F
:1031EC001C8194F86431354AD4F89411344892FB1C
:1031FC00F1F213FB02F39BB2A0FB032095F84B20DA
:10320C00A4F8C431C008A4F8D801002A40F01E82EA
:10321C004FF4FA63A5F8923094F82B1094F8C2018D
:10322C008142C0F00682D4F86031632B00F28A81AF
:10323C00AB6DB3F5FA7F40F285810C2385F85C30D9
:10324C0094F82F30002B40F094811E4A526A4AF6B3
:10325C00C8739A427FF61DAF94F864B1BBF1010FAD
:10326C007FF417AF94F87031013384F8703101F0AA
:10327C00D7FEB4F8723185F856B02F2B05D8002341
:10328C0084F8643141F28833AB650023C4F86031B3
:10329C00FFF7A6FBFDE600BFDAE32559D963B84E6C
:1032AC00000000200005002000300040B7600BB685
:1032BC00565555551F85EB5100E100E0C02709001C
:1032CC00CDCCCCCC00100040BC4B0022102183F89C
:1032DC000B1383F8152383F80C2394F8AAB1BBF1D4
:1032EC00000F3FF46AAFB4F9B631B4F8C411B4F8B6
:1032FC00AC2194F8C20100919BB2B4F8A611FEF770
:10330C006FFB0A2002F026FC94F8ABB10023BBF152
:10331C00010F84F8AA317FF45BAF01F06FFC5946C2
:10332C00A74801F019F8B4F8C80101F007FDB4F88A
:10333C00CC21A44BA4F8CA0140F6E44101FB02F2F3
:10334C00A3FB0213D21A03EB5203B5F89C2384F8A7
:10335C00C201DB0A94F8D000B4F838E102FB03F3A5
:10336C00B4F8A621AAFB031304EB400CC2EBC20277
:10337C0002EB53120130D4F8CC30BCF8D4B0ACF81A
:10338C00D4E0C0B23128734488BF0020A3EB0B03F8
:10339C0084F8D000C4F8CC30AAFB03031B0940F618
:1033AC00E440A4F83A319BB2C4F8D03100FB03F3EB
:1033BC008548A0FB030343F30F23002BB8BF002366
:1033CC00A4F8AC3194F82430D110012BC2F3CF0205
:1033DC00A4F8A62100F07781022B08D1237A93421E
:1033EC0040F27A81B4F8D4310133A4F8D43194F892
:1033FC006E317648B4F8D41142F2107200FB0322FD
:10340C00914200F3718100224FF0000B84F8AB2144
:10341C0084F8D7B1002B3FF4E4AEB4F87231302B02
:10342C0072D994F87C21002A6ED0313B572B00F2D4
:10343C007A8194F8DA31002B40F0F081FFF728FA0A
:10344C0094F81BE0B4F872017822302141F658331D
:10345C0040F22A3CB3FBFEF3BCFBFEFCCDF800C0F3
:10346C00FEF7ECF9A5F8A00380B2FEF70FFAB5F859
:10347C00A0234FF41673B3FBF2F3A4F8C43108E69F
:10348C00032385F86B3385F86C33637D3E60012B29
:10349C007FF427AEAB880093A86D5B08C82260212F
:1034AC00FEF7CCF9637DE880022B7FF41DAED4F8D7
:1034BC004031A3F16502942A3DD803EB430203EBA0
:1034CC008203EB8010E6952B94BF64230A2385F8C6
:1034DC005E304CE6B4F8683193B9642A84F87031E4
:1034EC005AD8E17C00293FF439AE002184F87011E0
:1034FC0094F8B8110029E6D0002384F8703136E630
:10350C00642A7FF626AE21E694F81CB001239B4575
:10351C0084F8DA3100F0A780BBF1020F00F0BF8015
:10352C002B4B0022C3E90D22DA6302F0A9F8002329
:10353C00A4F8C431ADE5013B622B39D840F21453E9
:10354C00EB80D1E50C230093D4F8400103234FF416
:10355C00FA726421FEF772F9AB6D85F85C00312BC1
:10356C009CBF022385F85C3094F82F30002B3FF47D
:10357C006CAE17230093B4F86C010D234FF4FA6270
:10358C006421FEF75BF984F858015EE6062385F8A2
:10359C006B3385F86C339FE5002184F87011D8E506
:1035AC00FEF73AFA312002F0D5FA84F8C6B109E6F2
:1035BC00F82B84BF40F6B243EB8095E500E100E0C8
:1035CC000024014001011000FF04EC4F54D9FFFF0F
:1035DC00002C0140D4F8BC01FEF752F9D4F840316C
:1035EC00B0EB530F1AD9B3F5FA6F17D294F8C02178
:1035FC00013284F8C021A27C0021C4F860119AB970
:10360C00B4F872212F2A0FD9002284F864216A8918
:10361C005208A4F87E21012285F85620002284F855
:10362C003E21C4F8BC31B0E5AA6DB2F57A7FEED973
:10363C00EAE7B5F89E33012200925B0801F10A0219
:10364C000A39FEF7FBF8A5F89200ECE5B5F89E33C5
:10365C000093AB8BB5F84E20B5F84C10FEF7EEF896
:10366C00A5F89200D8E594F82930EA887B4903EB59
:10367C00830303EB8303DB009BB2A4F8843102FBCE
:10368C0003F381FB0301DB17A3EBE11313449BB2A0
:10369C00632BA4F8AE313BD802F0C8F947E7584683
:1036AC0002F02CF8EA88237B02FB03F36B4AA2FBA3
:1036BC000323DB0903EB8303694A5B004B33C2E949
:1036CC000D33D36333E794F8A0312A8B89B202FB14
:1036DC0003F38B423FF786AE94F8D631002B7FF480
:1036EC0086AEA4F8D43182E64FF0000B012384F8A7
:1036FC00D631A4F872B101F0C3FF01F091FC94F83B
:10370C006E3184F864B1A4F8A4B184F87CB17AE683
:10371C0001F07EFF524BB4F8AE2184F83FB1C3E9FF
:10372C000D22DA6303E7012384F8DA31FFF7B0F8EE
:10373C00B4F87231C82B04D95023A4F886B1A5F87B
:10374C00A033B5F8A003FEF7A1F8B4F98631002B2D
:10375C007FF49FAC434984F86E31012284F83F31E9
:10376C0042F22833AB65C4F84031C4F8BC3185F85B
:10377C0056204B6284F86421637F95F8A22385F868
:10378C0055201422C4F860211BB1B5F89A33A4F863
:10379C007E31FEF70BFB01F0AFFE7AE401F070FF17
:1037AC002F4B0025C3E90D55DD6384F87C51A4F83B
:1037BC00725184F8A151A4F8A45101F0A5FE2A4835
:1037CC004FF48072294602F065FCFEF741F993F83C
:1037DC00EC30264D2B2B3CD0352B36D01F2B04BF79
:1037EC00234B2B60FFF7FBBB039101F049FF0399BF
:1037FC001B4B84F87C11C3E90D11D963A4F8721129
:10380C0084F8A111A4F8A411039101F07DFE039991
:10381C0015484FF4807202F03DFCD6E7154AD36888
:10382C0023F00103D36001F0FBFB0D4BC3E90DBB8F
:10383C00C3F83CB002F038F984F8DAB1FEE56378ED
:10384C00022B3FF6E5ABFFF7D8BB0B4B2B60FFF71A
:10385C00C6BB0A4B2B60FFF7C2BB00BFD34D621037
:10386C00002C014000100040340700200000002014
:10387C00007C00080044014000F8000800F8010832
:10388C00F0B5604CD4E90002101A6FF4487240F2A3
:10389C00765382189A4283B02AD85B4E5B4D002334
:1038AC0033802B78002B3CD06B780146ABB9AB78CE
:1038BC00002B00F08E80A888554F01333988AB70EF
:1038CC00FDF7DEFF322866D900223B882A706A7821
:1038DC00AB804AB1D4E90031C91A40F2E1439942B4
:1038EC004DD9AB794B2B77D80023A868338004E0F3
:1038FC004649484B886800221A804749474A0B883A
:10390C001268A0EB030C944503DD13440B8003B049
:10391C00F0BD1C1AA242BABF9B1A0B80088003B0E0
:10392C00F0BD3F4A947C74B13E4A128890421AD83A
:10393C003D494FF47A7409880094FDF77FFFA86025
:10394C0000233380D9E7324B1A88374B198840F261
:10395C00FF7300932F23FDF771FF3028CEBFA860B3
:10396C00AC602046ECE72A4B511C1A884FF4FA63E2
:10397C00009340F2E933FDF761FFA860E0E72A48C5
:10398C00AB790288C2EBC20201331144DBB2C90825
:10399C00AB710180A6E73B886268C3EBC301236867
:1039AC00D31AAA780B44C3F3CF03322A3B808ED9A7
:1039BC00193B9BB23B80A3F2D663194A03EBD3733A
:1039CC005B1082F8213001236B7000F0E3FA3B8826
:1039DC007DE780B2A8806FE7134A11491388193329
:1039EC009BB21380A3F2EE2303EBD3735B10002482
:1039FC0081F820302C70FEF7CFF9AC7100F0FAFA98
:103A0C0072E700BF34070020B00600200807002032
:103A1C0012000020A406002066060020B803002037
:103A2C00000500201400002010000020514BF0B5C0
:103A3C00514F1968002544F6206E1A46A7F804E089
:103A4C0003F17804AC462E4652F8043F8B42A3EBAC
:103A5C000100194606D070453CBF1FFA80FE0126B6
:103A6C00844401259442EFD1002E3ED0A7F804E007
:103A7C00424A4348FDB113784FEA5C15012BC560EF
:103A8C0045D0404C2378012B32D011780B4311D107
:103A9C000EF1FF31022945D83B2D0BD83A493B4C4E
:103AAC000B7001233A4913700E22227020220374EA
:103ABC00BA710B70F0BD1378C560012BE1D10EF11A
:103ACC00FF33022B48D9AEF10403042BD9D80123C0
:103ADC00137003222D4902742B4C2D4A237007209E
:103AEC00087013702021B971F0BD44F6206EBFE749
:103AFC00AEF1C90292B244F656518A42DAD8224942
:103B0C00234A1370772008700221B971F0BD0EF1B1
:103B1C00FF33022B19D83B2D1ED91A4C2378012BBD
:103B2C00B3D1F0BDAEF10403042B02D8632DC1D880
:103B3C00CDE7AEF1C9039BB244F656529342B9D8C5
:103B4C0001231149124A2370DBE7AEF10403042B65
:103B5C0097D8632DE1D8BAE70D4E0B4C0B490123D6
:103B6C00337003741370002323700E230B70202307
:103B7C00BB7186E734070020B8030020C205002083
:103B8C0008070020C3050020C2030020C303002047
:103B9C00A106002070B5524C237813B1514B1B7801
:103BAC0033B9514B1B78002B6ED0012B0AD070BD52
:103BBC004E4B1B78002B54D001F0D6F84C4B022204
:103BCC001A7070BD474B1B78002B50D1494D2B7888
:103BDC00012B75D0484B1B78012B68D02378002B18
:103BEC00E5D12B78EBB1454A537C072B19D84449C6
:103BFC000988052915D94348C16F00680133091A92
:103C0C005069DBB210FA81F1082B5374516108D161
:103C1C00C1F3CF033C48C1F3CF115C18591A04818E
:103C2C0011833A4C2088002838D0394BDD79002D8F
:103C3C00BDD1334A40F2DC5398421580B7D92F4E90
:103C4C00718BFDF71DFE322848D8337F0133DBB270
:103C5C00322B337702D97578002D3BD023887383B0
:103C6C0070BD01F0BBF8224B01221A7070BD1F4BC6
:103C7C001B787BB1274B1888FDF7C4FCFDF75AFA6B
:103C8C00BDE8704001F070B8FFF7D0FEBDE87040A1
:103C9C0001F06AB8BDE8704001F0A0B8174B1B7872
:103CAC00002BC2D1164A13880133138070BD01F06A
:103CBC00DFF8154B48B103229A7101F055F88DE7E6
:103CCC00FDF738FA01F050F884E702229A71FFF7F9
:103CDC00D7FDF2E700F0BEF9012333703577BDE76D
:103CEC007C060020C1060020A10600203007002021
:103CFC0090060020C2050020C30500200807002004
:103D0C00A406002034070020B80300206806002019
:103D1C0000050020940600200B28034B28BF0B2025
:103D2C0040001870704700BF250700202DE9F84FA0
:103D3C00354C364EDFF8D880032001F0DFFC04F15F
:103D4C007C07002318E094F835503249DFF8C8B0EE
:103D5C00C3EBC310F7224FF47A6A0CEB400080B22D
:103D6C0012FB05A24DBBC1E90D55CD63FDF79AFDC4
:103D7C002B460234A74211D094F834C04FF00009FE
:103D8C004AF6AA22BCF1FF0FC8F80020A6F8009052
:103D9C00D9D102340133A742DBB2EDD101F070FC72
:103DAC001E481C4A00881A4900239362D0624AF6C6
:103DBC00AA2233800A60BDE8F88FBBFBF2FA4FF001
:103DCC000A0E174A174DB2FBFAF290B2C1F828E06E
:103DDC00C8622A7800FB02F2FE2010FB03C0124BD3
:103DEC0083FB0232114BB3FBFAFA114B0AFB00F0C6
:103DFC00D20AA3FB0030C1E90D22CA63C0F34F10F5
:103E0C00FDF750FD4B46B4E700050020B00600203E
:103E1C0000300040002C0140C0D8A7000400002056
:103E2C00001BB7002507002057EAE068A0860100B8
:103E3C001F85EB5110B572B61A4B93F83030FF2B2F
:103E4C0007D0FFF773FF184A184B1288DA6262B674
:103E5C0010BD164C164B41F28732E2621B78E363BD
:103E6C00C4E90D33032001F049FC3723A362C820B9
:103E7C00FDF718FD052001F041FC2823A362C820A2
:103E8C00FDF710FD062001F039FC1923A362C820B0
:103E9C00FDF708FD01F0F4FB064A0023A362138032
:103EAC00D1E700BF0005002004000020002C0140D9
:103EBC0025070020B006002070B5164C41F2873360
:103ECC00E36272B6144D154B3C224AF6AA262E60BC
:103EDC00A2621B78E363C4E90D33012001F00EFCF0
:103EEC004B20FDF7DFFC5023A3624B20FDF7DAFCDF
:103EFC005A23A3624B202E60FDF7D4FC01F0C0FBCB
:103F0C00074A084912880023A3620B80E26262B65A
:103F1C0070BD00BF002C0140003000402507002080
:103F2C0004000020B006002010B572B6144C154ADF
:103F3C00154B4AF6AA2141F28730E06211605022FB
:103F4C00A2621B78E363C4E90D33032001F0D6FBB6
:103F5C006420FDF7A7FC4623A3626420FDF7A2FCB6
:103F6C002823A3626420FDF79DFC01F089FB074A1E
:103F7C00074912880023A3620B80E26262B610BD6F
:103F8C00002C0140003000402507002004000020D8
:103F9C00B006002010B5124C124B41F28731322280
:103FAC00E162A2621B78E363C4E90D33022001F0E5
:103FBC00A5FB9620FDF776FC0B4A4AF6AA211E2398
:103FCC0011609620A362FDF76DFC01F059FB074AC6
:103FDC00074912880023A3620B80E26210BD00BF68
:103FEC00002C014025070020003000400400002078
:103FFC00B006002010B5124C124B41F2873128222A
:10400C00E162A2621B78E363C4E90D33022001F084
:10401C0075FB9620FDF746FC0B4A4AF6AA21502365
:10402C0011609620A362FDF73DFC01F029FB074AC5
:10403C00074912880023A3620B80E26210BD00BF07
:10404C00002C014025070020003000400400002017
:10405C00B00600202DE9F041154D41F28733EB629B
:10406C0072B6144BDFF850801B78144FEB63C5E924
:10407C000D3377244AF6AA26A7FB04300009C8F8AA
:10408C00006001F03BFB63100A33AB620A20023C78
:10409C00FDF708FC631CEFD101F0F2FA084A09495C
:1040AC0012880023AB620B80EA6262B6BDE8F08135
:1040BC00002C01402507002000300040CDCCCCCC9A
:1040CC0004000020B0060020002103E00B4B5B58DD
:1040DC00435004310A480B4B42189A42F6D30A4A11
:1040EC0002E0002342F8043B084B9A42F9D301F05A
:1040FC00A9FD01F0ABFFFEF75FFF704718610008E8
:10410C0000000020C8030020C80300205408002031
:10411C00FEE70000836861F300038360704700BF13
:10412C004FF080730360704743680A7862F308238A
:10413C00436083684A7862F34103836083688A78BA
:10414C0062F3CB238360CB78C26A013B63F31752D3
:10415C00C2627047836861F308238360704700BFB5
:10416C00836843F008038360704700BF8068C0F326
:10417C00C0007047836843F004038360704700BF3E
:10418C008068C0F38000704710B4112917D8DFE89D
:10419C0011F0120079007E00830088008D009200DF
:1041AC0097009C00A100A600AB00B000B500BA00BF
:1041BC00BF00C4007400046963F302040461013A93
:1041CC000F2A0DD8DFE802F00E13181D22272C3110
:1041DC00363B40454A4F5408C36A61F3D333C3623C
:1041EC0010BC7047436B61F304034363F8E7436B04
:1041FC0061F349134363F3E7436B61F38E2343632A
:10420C00EEE7436B61F3D3334363E9E7436B61F34D
:10421C0018534363E4E7436B61F35D634363DFE788
:10422C00036B61F304030363DAE7036B61F3491374
:10423C000363D5E7036B61F38E230363D0E7036B52
:10424C0061F3D3330363CBE7036B61F3185303635D
:10425C00C6E7036B61F35D630363C1E7C36A61F394
:10426C000403C362BCE7C36A61F34913C362B7E7D3
:10427C00C36A61F38E23C362B2E7C46863F3575415
:10428C00C4609CE7046963F3C504046197E704699F
:10429C0063F38814046192E7046963F34B240461AB
:1042AC008DE7046963F30E34046188E7046963F3F2
:1042BC00D134046183E7046963F3944404617EE7B9
:1042CC00046963F35754046179E7046963F31A646E
:1042DC00046174E7046963F3DD6404616FE7C46827
:1042EC0063F30204C4606AE7C46863F3C504C46082
:1042FC0065E7C46863F38814C46060E7C46863F35B
:10430C004B24C4605BE7C46863F30E34C46056E7A7
:10431C00C46863F3D134C46051E7C46863F3944454
:10432C00C4604CE7836807298CBF43F000736FF3BC
:10433C0059638360836861F353438360836862F3DA
:10434C0014538360704700BF024B9A6860F3D752D6
:10435C009A60704700240140836861F39653836030
:10436C00704700BF20B9034BDA6961F30002DA61D0
:10437C00704700BF0000014010B412490B6843F0B5
:10438C0001030B600B689B07FCD54B680D4A6FF360
:10439C0001034B60536813F00C0FC3F38101F9D187
:1043AC00136823F0867323F48033136041F6107482
:1043BC004FF480104FF41F035160D462106310BC93
:1043CC009360704700100240030C03F1804303F527
:1043DC00043300F01F001A68012303FA00F030EADE
:1043EC0002030CBF01200020704700BF030C03F137
:1043FC00804303F5043301291A6800F01F0006D02E
:10440C00012101FA00F022EA00001860704701FA5D
:10441C0000F0104318607047030C03F1804303F560
:10442C00043301291A6800F01F0006D0012101FA9B
:10443C0000F022EA00001860704701FA00F0104307
:10444C0018607047042809D8DFE800F0090F151B25
:10445C0003000F4B5A6A61F300025A6270470C4B0F
:10446C001A6861F300021A607047094B1A6861F30D
:10447C0010421A607047064B1A6861F318621A6092
:10448C007047034B1A6A61F300021A62704700BF4F
:10449C0000100240024B5A6860F307125A607047D2
:1044AC0000100240024B5A6860F30A225A607047AF
:1044BC0000100240024B5A6860F3CD225A607047DC
:1044CC0000100240054B5A6860F38F325A605A68EC
:1044DC00C0F3800060F31C725A60704700100240F9
:1044EC00134BA0B95A6860F3104284465A60104BC3
:1044FC005A6861F395425A605A68C1F3011060F32F
:10450C005E725A60DA6A6CF31A62DA6270475A6841
:10451C0042F480325A605A6801280BBF6FF3514243
:10452C0042F400324FF0020C4FF0000C5A60DEE700
:10453C0000100240024B5A6860F301025A60704747
:10454C0000100240024B5868C0F38100704700BF56
:10455C000010024038B53F4D6B6813F00C0F044649
:10456C00C3F3810228D0022A2FD03B4B2360394859
:10457C003A4A41683A4DC1F30311515CCB40636038
:10458C004168C1F302211144097C23FA01F1E16075
:10459C004168C1F3C221695CCB40A36045684168A6
:1045AC00C5F30070C1F3813141EA80010A44127EE7
:1045BC00B3FBF2F3236138BD6B6D9805D5D52B6B2E
:1045CC009901D2D5274B2360D1E76968EB6A002BA0
:1045DC00C1F300411DDAEA6AEB6AC2F3031CEA6A12
:1045EC00C3F3082302F0070269B369681E4811F48B
:1045FC00003F194908BF08460021A3FB000503FB37
:10460C0001F10CFA02F20023FCF75AFD034620607C
:10461C00ADE76B686A6812F0C04FC3F38343C2F313
:10462C0041700CD10F2B0AD0023319B1094A5268D0
:10463C0092030AD50C4800FB03F3236097E7013380
:10464C0003EB0013F1E70848D7E7034800FB03F33B
:10465C0023608CE70010024000127A00D86000083A
:10466C00E8600008006CDC0200093D00012805D060
:10467C00054B5A6D6FF305125A657047024A536D1C
:10468C0043F03003536570470010024010B40468C7
:10469C000C490022C3B26FF300040460083B0260B3
:1046AC0042608260C260A2F13332A2FB03231B0979
:1046BC00486810BC9B000F2202FA03F303434B60C3
:1046CC00704700BF00000240036861F30003036001
:1046DC00704700BF034B1B68034214BF012000202E
:1046EC00704700BF000002400023C0E90033C0E95E
:1046FC0002330382704700BF03684BF6EF7213401E
:10470C00036002680B891343036003684A7C62F3FD
:10471C000D3303600368CA7B62F38B230360036869
:10472C008A7B62F30923036003684A7B62F3C71335
:10473C00036003680A7B62F3861303600A7C0368D8
:10474C0062F345130360D1E9002310B44C89446033
:10475C00826010BCC3607047014BD860704700BFCB
:10476C0000200240024B0349034A59605A607047CB
:10477C000020024023016745AB89EFCD024A136943
:10478C0043F0800313617047002002401B4A1369F9
:10479C0043F0020313615061136943F0400313614A
:1047AC00D368D90704D4D3685B0720D5012011E066
:1047BC004FF08043D168C80712D4D168490713D48D
:1047CC00D268D20603F1FF334CBF02200320002B2A
:1047DC0008BF0420094B1A696FF341021A61704734
:1047EC00013BE7D10420F5E7013B0120EFE7D3685B
:1047FC0013F0100F14BF02200320EBE7002002403F
:10480C00194A136943F0010313610160D368D90796
:10481C0004D4D3685B0720D5012011E04FF480133A
:10482C00D168C80712D4D168490713D4D268D2060C
:10483C0003F1FF334CBF02200320002B08BF0420E0
:10484C00094B1A696FF300021A617047013BE7D1FB
:10485C000420F5E7013B0120EFE7D36813F0100FBC
:10486C0014BF02200320EBE7002002400B88002B32
:10487C0043D02DE9F0434FF0000E032601251FFA1B
:10488C008EFC4FEA4C0213F0010F06FA02F705FA00
:10489C000CF80EF1010E2CD0046824EA0704046015
:1048AC008C79D0F80090944044EA09040460446880
:1048BC0024EA080444600C79D0F8048004FA0CFC57
:1048CC004CEA08044460846824EA07048460CC79C8
:1048DC00D0F808C0944044EA0C048460C46824EA0C
:1048EC000707C76091F805C0C4680CFA02F22243AE
:1048FC00C2605B08C3D1BDE8F083704701F00703C9
:10490C009B00C90802FA03F20BD0416A4FF00F0C5E
:10491C000CFA03F321EA03034362436A1A4342622B
:10492C007047016A4FF00F0C0CFA03F321EA0303F2
:10493C000362036A1A430262704700BF1F4BDB68B5
:10494C00C3F3022300B5C3F1070EBEF1040F03F14C
:10495C00040C28BF4FF0040EBCF1060F21D9033B09
:10496C004FF0FF3C0CFA03FC22EA0C024FF0FF3C28
:10497C000CFA0EFC21EA0C019940002841EA0201D4
:10498C0012DB0F4A09011318C9B283F80013012373
:10499C00410900F01F0003FA00F042F821005DF815
:1049AC0004FB00221346E1E7064B00F00F0009015F
:1049BC000344C9B219765DF804FB00BF00ED00E0BA
:1049CC0000E100E0FCEC00E008B52E4B98421CD056
:1049DC002D4B984223D02D4B98422AD02C4B9842E9
:1049EC0009D02C4B98422ED02B4B984235D02B4BC8
:1049FC0098423CD008BD2A480121FFF70DFDBDE8C7
:104A0C00084027480021FFF707BD26480121FFF782
:104A1C0003FDBDE8084023480021FFF7FDBC2248F8
:104A2C000121FFF7F9FCBDE808401F480021FFF702
:104A3C00F3BC1E480121FFF7EFFCBDE808401B4802
:104A4C000021FFF7E9BC1A480121FFF7E5FCBDE89E
:104A5C00084017480021FFF7DFBC16480121FFF77B
:104A6C00DBFCBDE8084013480021FFF7D5BC124819
:104A7C000121FFF7D1FCBDE808400F480021FFF7EA
:104A8C00CBBC00BF002C01400004004000100040D3
:104A9C00002000400040014000440140004801401B
:104AAC00080010000B000C000100100004001000A6
:104ABC0010000C0011000C0012000C00036861F3D4
:104ACC00C7130360704700BF062909D8DFE801F05F
:104ADC0013080E0809080400C36962F3CB23C361F1
:104AEC007047C36962F3C303C3617047836962F3A0
:104AFC00CB2383617047836962F3C303836170477F
:104B0C00062909D8DFE801F0090E13181D2204004C
:104B1C00036A62F30C3303627047036A62F30003A7
:104B2C0003627047036A62F3820303627047036A8D
:104B3C0062F3041303627047036A62F38613036221
:104B4C007047036A62F3082303627047036A62F3D7
:104B5C008A230362704700BF2DE9F04186B00546F9
:104B6C0001A817461E468846FFF7F4FCDDE903341E
:104B7C00114A954208BF1C4604EB84046400B4FB44
:104B8C00F8F10E4CA4FB0134E40804EB8403A1EB14
:104B9C0043010429AB6888BF0134A4B264F30F034A
:104BAC00AB60EB6867F30C33EB602B6966F30D338A
:104BBC002B6106B0BDE8F08100380140CDCCCCCCE7
:104BCC00C36861F34D33C360704700BFC36861F3C2
:104BDC00C303C360704700BFC36861F38203C36043
:104BEC00704700BF436961F3C7134361704700BF4F
:104BFC00436961F3C3034361704700BF064B074829
:104C0C00B3F806C00649074AA0F800C018885B88AC
:104C1C0008801380704700BF28070020C8060020BA
:104C2C00CC0600203806002030B5402387B0002287
:104C3C0003214FF09040FCF7B1FE08230022032122
:104C4C004FF09040FCF7AAFE01214FF4A010FFF7A3
:104C5C00CDFB3348334CFFF719FD01A8FFF744FD9A
:104C6C00314B324A2E48019301A940F201234FF4F3
:104C7C0080250492ADF81430CDE90245FFF73CFDD8
:104C8C0027480121FFF720FD01212948FFF7AEFB42
:104C9C000720FFF717FC6846FFF742FA254B26481A
:104CAC0000936946FFF740FA032319462248012274
:104CBC00FFF76AFA2048032302220621FFF764FA61
:104CCC0003231A461C481121FFF75EFA072304221E
:104CDC0010211948FFF758FA0120FFF735FB012284
:104CEC0015480721FFF71EFB13480121FFF732FA85
:104CFC0011480121FFF70EFA0F48FFF731FA0E4861
:104D0C00FFF734FA0028FAD10B480B4CFFF732FAB4
:104D1C002046FFF735FA0028FAD107B030BD00BFA6
:104D2C0008000240280700204C240140000101012A
:104D3C0009001800010100040024014048F2E803B6
:104D4C0003FB00F00028B8BF00F6FF70054B001302
:104D5C00C0F5485083FB0023C017A0EBE3001930CB
:104D6C0000B27047310CC33038B5164D164CAB6DD4
:104D7C00AB652046FFF728FE144B41210B22A161A5
:104D8C0022621A78A2624FF6FF73E3626269104BDB
:104D9C00002142F00102626103F8041B0D4A6162BA
:104DAC002A660D4A6B661378EB65E36843F400736F
:104DBC00E360236843F0010340F68B122360AA657D
:104DCC0038BD00BF0000024000400140C20300207B
:104DDC003007002034400140BE03002038B51D4D83
:104DEC001D4CAB6D43F01003AB652046FFF7ECFD9B
:104DFC0060210323194AA16123621278184BA26225
:104E0C004C210122E1621A7063691649164A43F07B
:104E1C0001036361154B29666A665B781733EB6592
:104E2C00AB6D43F00203AB65AB6D43F00803AB65B0
:104E3C00AB6D43F00103AB65E36843F40073E360CF
:104E4C00636C43F400436364236843F00103236001
:104E5C0038BD00BF00000240004001401807002090
:104E6C00300700203440014034040020C2030020ED
:104E7C004FF09043186900F004007047042301229E
:104E8C0002214FF09040FCF795BD00BFFEE700BF3C
:104E9C00FEE700BFFEE700BFFEE700BF704700BFA4
:104EAC00704700BF704700BF704700BF10B50220AD
:104EBC00FFF710FC012800D010BD054C6060FFF717
:104ECC009DFE0820FFF706FC012808BF606010BD9E
:104EDC000000024010B5194B1C788CB94FF400300F
:104EEC00FFF7F8FB01281AD04FF40020FFF7F2FB74
:104EFC00012800D010BD124B4FF480325A6010BD07
:104F0C000F4B4FF480325A609A6D6FF300029A6522
:104F1C00FEF740FE0B4B4FF400421A6110BD084BDC
:104F2C004FF480325A609A6D64F300029A65FEF772
:104F3C0031FE044B4FF400421A61D5E7C205002044
:104F4C00000002400004014008B50D4A0D4B1268E8
:104F5C005B6AB3EB520F07D90B4B4FF400125A613B
:104F6C00BDE80840FCF7BABF00F052F8074B1B78BD
:104F7C00834200D008BD044B4FF400125A6108BDA7
:104F8C0040060020001000400004014052000020A8
:104F9C00024B4FF6FE721A61FDF774BD0020004003
:104FAC00024B00221A61FCF759BF00BF00440140BC
:104FBC00034B4FF6FE714FF6FD7219611A61704783
:104FCC0000400140704700BF074B1A69910744BF6E
:104FDC004FF6FD721A61044B1A69D20744BF4FF6A3
:104FEC00FE721A61704700BF00040040064A074970
:104FFC001368013313604B691B0400D470474FF4E2
:10500C0000434B61FDF724BC340800200004014030
:10501C00024BD869C0F38070704700BF000001409C
:10502C00044B1A684FF4001122F400121A605961F3
:10503C00704700BF00040140024A136843F4001398
:10504C0013607047000401400F4B1B68B3F5C87F19
:10505C0010D20E4AD36923F00403D3610C4B0D4AD2
:10506C001B78002B0CBF4FF4001100215B059160E5
:10507C00D3607047B3F5167FF0D9044AD36943F077
:10508C000403D361EAE700BF4006002000000140A2
:10509C0052000020000401402DE9F0430029B4BF68
:1050AC00CE1C0E4626F00303073383B023F0070310
:1050BC0000AFADEB030DB6106D4688468146144625
:1050CC0000213246284600F0E5FFB8F1030F17DD4A
:1050DC004846291F0022837890F8038090F800E05E
:1050EC0090F801C01B0443EA086343EA0E03013243
:1050FC0043EA0C23964241F8043F00F10400EADC39
:10510C003E60FFF72FFBC4F30903EBB100237B6078
:10511C007B683A689A4211D978687B6804EB800006
:10512C0055F82310FFF76CFB0320FFF715FB7B688A
:10513C0001337B607A683B689A42EDD3FFF71EFB24
:10514C000C37BD46BDE8F0832046FFF71FFBDDE7BB
:10515C00002A30DD531E072B10B501F1010421D9B3
:10516C00031B022B1ED922F0030E8E440B46441A4D
:10517C00D3F800C044F803C004337345F8D1940746
:10518C0022F003030DD0CC5CC4545C1CA24208DD9D
:10519C00023311F804C000F804C09A4201DDCA5C65
:1051AC00C25410BD431E1A44201AC15C03F8011FDF
:1051BC009342FAD110BD704762B670471C4B40F257
:1051CC00531210B51A60FFF7D7F801210020FFF732
:1051DC0039F90120FFF7F8F801280446F9D100202D
:1051EC001D21FFF77DF921460220FFF72BF919202D
:1051FC00FFF7EAF801280446F9D10020FFF74AF935
:10520C000020FFF757F90020FFF74CF92046FFF775
:10521C002DFA0220FFF78EF9FFF794F90228FBD143
:10522C000020FFF723FABDE8104000F03BBD00BFA3
:10523C0000200240084B10B44CF6CC4245F25554B9
:10524C001C6003201A604FF47A614AF6AA22586057
:10525C0010BC99601A6070470030004038B53F4868
:10526C003F4C0121FFF7C2F80025682341F287313A
:10527C0046F66802E1622046A5622946A261E36116
:10528C000122FFF721FC204601220221FFF71CFC22
:10529C00012220460421FFF717FC20460121FFF7CD
:1052AC000DFC636C2F484B2262F3070363640121EE
:1052BC00FFF79CF82C4C2D480121FFF797F802239F
:1052CC0019462A462046FCF769FB2A46204601234C
:1052DC000221FCF763FB80232A4602214FF0904009
:1052EC00FCF75CFB204602220121FFF707FB294655
:1052FC0020460222FFF702FB022207214FF09040CA
:10530C00FFF7FCFA2A464FF4806302214FF09040DD
:10531C00FCF744FB2A464FF4007302214FF09040F7
:10532C00FCF73CFB4FF480732A4602214FF090406F
:10533C00FCF734FB02220A214FF09040FFF7DEFA13
:10534C00022209214FF09040FFF7D8FABDE838400F
:10535C00022208214FF09040FFF7D0BA0B00180042
:10536C00002C01401100140000040048120014002D
:10537C002DE9F84F4B4CFFF721FF102601214FF47C
:10538C00A010FFF733F884F80B634FF40068C4F8EF
:10539C000080FFF763FF44480121FFF727F8434BD8
:1053AC0043484FF6FF774FF03B0ADF620121C3F809
:1053BC0028A0FFF71BF83F4B32224FF0770BDA6235
:1053CC00C3F828B0302384F813334FF40023236040
:1053DC00DFF8E49001214846FFF708F801214FF46B
:1053EC00C010FFF703F800250223002203214FF021
:1053FC009040FCF7D3FA20232A4603214FF090402B
:10540C00FCF7CCFA84F80C534FF480532360012141
:10541C002846FEF7A7FF29480121FEF7E7FF284B96
:10542C002848DF62C3F828B01A6842F080021A607C
:10543C000121FEF7DBFF244B4FF4FA72DA62C3F85A
:10544C0028A084F815534FF400132360012148461B
:10545C00FEF7CCFF1D480121FEF7C8FF2A460423A6
:10546C0002214FF09040FCF799FA01214FF4A01063
:10547C00FEF7BCFF164B40F68A129A6584F80B6354
:10548C00C4F80080A3F54043DF629E621A6842F0C4
:10549C0080021A601A6842F001021A60BDE8F84FE7
:1054AC0000F066BB00E100E004001C0000100040AE
:1054BC0008001C000020004011001400120018000D
:1054CC000048014011001800004401401000180071
:1054DC0000000240014B5863704700BF002C014094
:1054EC00014B9863704700BF002C0140014BD863FF
:1054FC00704700BF002C0140024A536943F001037E
:10550C0053617047002C0140024B0022DA625A6250
:10551C00704700BF0040014010B5384C01222046B6
:10552C000021FFF7EDFA204601220221FFF7E8FAED
:10553C00204601220421FFF7E3FA012211462046FE
:10554C00FFF7DEFA204601220321FFF7D9FA2046A5
:10555C0001220521FFF7D4FA2268294B294842F091
:10556C0001022260626C42F400426264626942F0A1
:10557C00010262611968244A41F0010119605969FC
:10558C0041F001015961D96821F00101D96001682C
:10559C0041F001010160116841F001011160516994
:1055AC00A3F5923341F0010151611A6842F00102F6
:1055BC001A605A6942F001025A61DA6842F001023B
:1055CC0004F5A054DA60FFF72FFB012200212046DE
:1055DC00FFF796FA23680D4A43F00103202123605C
:1055EC0082F807138023136002F1C04202F50C52BB
:1055FC00136843F40043136010BD00BF002C01403E
:10560C0000440140004801400010004000E100E06F
:10561C0070B54FF0904420464FF480630022012176
:10562C00FCF7BCF94FF48060A0624FF40073204685
:10563C0000220121FCF7B2F94FF400700F4DA0626B
:10564C004FF48073204600220121FCF7A7F90223B6
:10565C004FF480701946A06200222846FCF79EF990
:10566C002846012300220221FCF798F920468023CA
:10567C00BDE8704000220221FCF790B900040048FC
:10568C0070B51D4E02230022012130464FF090448C
:10569C00FCF784F902204FF4806300220121B062F0
:1056AC002046FCF77BF901234FF480601D46194618
:1056BC000022A0623046FCF771F94FF4007300220F
:1056CC0029462046B562FCF769F94FF40071802336
:1056DC000022A16220462946FCF760F98023A362D0
:1056EC0000224FF4807329462046FCF757F94FF4FB
:1056FC008073A36270BD00BF000400480138F8B588
:10570C00052845D8DFE810F045008400F900C300F7
:10571C002E010600BF4E01231D464FF09044194642
:10572C0000223046FCF73AF94FF400730022294668
:10573C002046B562FCF732F94FF400728023A26266
:10574C00294600222046FCF729F98023A361002278
:10575C004FF4807329462046FCF720F9AE4A127D9F
:10576C004FF48073A3620223002A40F02F81294654
:10577C003046FCF713F90223B3624FF48063002226
:10578C0002214FF09040FCF709F9A44BA44ADA61CE
:10579C00F8BD4FF090448023002201212046FCF7F5
:1057AC00FDF880209B4DA0624FF4807300220121F4
:1057BC002046FCF7F3F801234FF4807019460022C1
:1057CC00A06201262846FCF7E9F84FF4007300228A
:1057DC00AE6131462046FCF7E1F88F4A127D4FF45A
:1057EC000073A3620223002A40F0FC803146284655
:1057FC00FCF7D4F80223AB624FF480630022022141
:10580C004FF09040FCF7CAF8844B864ADA61F8BD39
:10581C00804D4FF09044022300220121284602279C
:10582C00FCF7BCF84FF48063002201212046AF62E4
:10583C00FCF7B4F801234FF480621946A2622846A3
:10584C0000220126FCF7AAF84FF400730022AE6187
:10585C0031462046FCF7A2F86F4A127D4FF40073D4
:10586C00A3628023002A40F0C98031462046FCF711
:10587C0095F88023A3624FF48073002202214FF02D
:10588C009040FCF78BF8654B674ADA61F8BD4FF036
:10589C0090448023002201212046FCF77FF88020D1
:1058AC005C4DA0624FF48073002201212046FCF76E
:1058BC0075F84FF4807102230022A1622846012161
:1058CC000226FCF76BF84FF480630022AE610121D5
:1058DC002046FCF763F8504A127D4FF48063A362B4
:1058EC000123002A40F0848019462846FCF756F81C
:1058FC000123AB624FF4007380E7464E01231D4633
:10590C004FF09044194600223046FCF747F84FF40C
:10591C000073002229462046B562FCF73FF84FF48D
:10592C0000720223A2622946002230460227FCF7AD
:10593C0035F84FF480630022B76129462046FCF706
:10594C002DF8354A127D4FF48063A3628023002A20
:10595C005AD129462046FCF721F88023A3624FF444
:10596C0080730CE72B4D4FF0904402230022012151
:10597C0028460226FCF712F84FF48063002201211E
:10598C002046AE62FCF70AF84FF480628023A262D4
:10599C00012100222046FCF701F88023A36100229C
:1059AC004FF4807301212046FBF7F8FF1A4A127D51
:1059BC004FF48073A362012372B919462846FBF792
:1059CC00EDFF0123AB624FF4007356E7002219463A
:1059DC003046FBF7E3FFD0E6002231462846FBF7C2
:1059EC00DDFFF0E7002219462846FBF7D7FF03E757
:1059FC00002231462846FBF7D1FF7BE700223946CF
:105A0C002046FBF7CBFF36E7002239462046FBF752
:105A1C00C5FFA4E700040048000500200000014079
:105A2C00C5000040E5000040D500004070B51D4E9B
:105A3C0002230022012130464FF09044FBF7AEFFC9
:105A4C0002204FF4806300220121B0612046FBF755
:105A5C00A5FF01234FF480601D4619460022A06269
:105A6C003046FBF79BFF4FF400730022294620467B
:105A7C00B561FBF793FF4FF4007180230022A16204
:105A8C0020462946FBF78AFF8023A36100224FF4AE
:105A9C00807329462046FBF781FF4FF48073A36285
:105AAC0070BD00BF0004004870B5284C227DBABB05
:105ABC00274D022301212846FBF770FF0223AB621E
:105ACC0000224FF4806302214FF09040FBF766FFF9
:105ADC00227D9ABB1E4D012319462846FBF75EFF1B
:105AEC000123AB624FF40073002202214FF090406F
:105AFC00FBF754FF227D8023CAB901214FF090405F
:105B0C00FBF74CFF4FF0904380229A62BDE8704047
:105B1C004FF48073002202214FF09040FBF73EBF00
:105B2C0002230B4800221946FBF738FFC8E7002276
:105B3C0002214FF09040FBF731FFE7E704480123C7
:105B4C0000220221FBF72AFFCCE700BF0005002052
:105B5C0000040048054BDA696FF30002DA61186241
:105B6C00DA6942F00102DA61704700BF00000240BE
:105B7C0030B52B482B4D2C4C89B00121FEF736FC4F
:105B8C002A480121FEF732FC01214FF4A010FEF748
:105B9C002DFC274B01A928464022CDE90123FEF715
:105BAC0065FE002206212846FEF7A8FE2046FEF7D9
:105BBC006DFD03A8FEF798FD1E4A1F4B2046CDE94C
:105BCC0003321E4C1E4A002503A94FF48073CDE905
:105BDC000523ADF81C50FEF78FFD2B462A462046B8
:105BEC004FF4E131FEF7B8FF20460121FEF7EEFF3E
:105BFC0020460121FEF7F0FF20460121FEF7F8FFB9
:105C0C0020460121FEF7EEFF20460121FEF7D8FFCA
:105C1C002A4603210A20FEF791FE09B030BD00BFD1
:105C2C000E001800000400481C0002401200140072
:105C3C0000010201CC04002004380140003801406E
:105C4C001000310030B414490B6843F001030B60B1
:105C5C000B689B07FCD54B680F4A6FF301034B6035
:105C6C00536813F00C0FC3F38101F9D113680B487F
:105C7C000B4C23F0867323F48033136041F61075BC
:105C8C004FF480135160D56213634FF41F0393607C
:105C9C00846030BC704700BF0010024000ED00E093
:105CAC000010000810B5FEF74DFC60B1022816D0AC
:105CBC002C482D4B2D495B682D4AC3F30313CB5C49
:105CCC00D840106010BD284B5A6D9205F0D51A6B58
:105CDC00244B284812F0007F08BF1846E9E7224BF6
:105CEC005968DA6A002AC1F300411CDAD86ADC6A06
:105CFC00DA6AC0F3031EC4F3082402F0070259B396
:105D0C005B681D4813F4003F164B4FF0000108BFB1
:105D1C0018460EFA02F20023A4FB000E04FB01F15C
:105D2C00FBF7CEF9C5E758685B6813F0C04FC0F3BA
:105D3C008340C3F341720BD10F2809D0023019B143
:105D4C00094B5B689B0309D50B4B03FB00F0B0E7D9
:105D5C00013000EB0210F2E70748DAE7014B03FBD6
:105D6C0000F0A6E700127A0000100240F86000086C
:105D7C00C4030020006CDC0200093D002DE9F04753
:105D8C00089E0D4604468846002B4DD18A42944607
:105D9C0068D9B2FA82F252B101FA02F3C2F12001CF
:105DAC0020FA01F10CFA02FC41EA030894404FEA94
:105DBC001C45210CB8FBF5FE1FFA8CF705FB1E8366
:105DCC0041EA03430EFB07F199420BD91CEB030389
:105DDC000EF1FF3080F01E81994240F21B81AEF132
:105DEC00020E63445B1AA4B2B3FBF5F005FB10334F
:105DFC0044EA034400FB07F7A7420AD91CEB04044E
:105E0C0000F1FF3380F00881A74240F20581644421
:105E1C000238E41B40EA0E4000211EB1D44000239E
:105E2C00C6E90043BDE8F0878B4208D9002E00F08C
:105E3C00EE800021C6E900050846BDE8F087B3FAFC
:105E4C0083F100294AD1AB4202D3824200F2F9809D
:105E5C00841A65EB030301209846002EE2D0C6E9B4
:105E6C000048DFE702B9FFDEB2FA82F2002A40F006
:105E7C009180A1EB0C054FEA1C471FFA8CFE012107
:105E8C00B5FBF7F307FB1350250C45EA00450EFB59
:105E9C0003F0A84208D91CEB050503F1FF3802D228
:105EAC00A84200F2CB8043462D1AA4B2B5FBF7F002
:105EBC0007FB105544EA05440EFB00FEA64508D925
:105ECC001CEB040400F1FF3502D2A64500F2BB80A6
:105EDC002846A4EB0E0440EA03409EE7C1F12007DC
:105EEC008B4022FA07FC4CEA030C20FA07F405FA63
:105EFC0001F31C43FD404FEA1C4900FA01F3B5FBCA
:105F0C00F9F8200C1FFA8CFE09FB185540EA0545E0
:105F1C0008FB0EF0A84202FA01F20BD91CEB0505A6
:105F2C0008F1FF3A80F08880A84240F28580A8F101
:105F3C00020865442D1AA4B2B5FBF9F009FB105503
:105F4C0044EA054500FB0EFEAE4508D91CEB0505E1
:105F5C0000F1FF346CD2AE456AD90238654440EA90
:105F6C000840A0FB0294A5EB0E05A542C846A64628
:105F7C0056D353D05EB1B3EB080265EB0E0505FAB0
:105F8C0007F722FA01F3CD401F43C6E90075002143
:105F9C00BDE8F087C2F1200320FA03F10CFA02FCF1
:105FAC0025FA03F395400D434FEA1C471FFA8CFE6C
:105FBC00B3FBF7F107FB11302B0C43EA004301FB59
:105FCC000EF0984204FA02F408D91CEB030301F119
:105FDC00FF382FD298422DD9023963441B1AADB227
:105FEC00B3FBF7F007FB103345EA034500FB0EF358
:105FFC00AB4208D91CEB050500F1FF3816D2AB42B9
:10600C0014D902386544ED1A40EA014138E73146AB
:10601C00304607E78646E5E61846FAE64B45A9D230
:10602C00B9EB020864EB0C0E0138A3E74046EAE733
:10603C00204694E74146D1E7D0467BE7023B6544D6
:10604C0032E7084609E76444023842E770B50D4D63
:10605C000D4C641BA4100026A64209D10B4D0C4C10
:10606C0000F020F8641BA4100026A64205D170BDD8
:10607C0055F8043B98470136EEE755F8043B984732
:10608C000136F2E710610008106100081061000889
:10609C001461000802440346934200D1704703F890
:1060AC00011BF9E7F8B500BFF8BC08BC9E46704769
:0C60BC00F8B500BFF8BC08BC9E46704759
:1060C800191B12131D1516171A090A0B1E0D0E0F90
:1060D8000000000000000000010203040607080990
:1060E800000000000102030402040608020C081064
:1060F8000000000000000000010203040607080970
:0861080080FCFF7F0100000094
:04611000251100084D
:04611400011100086D
:10611800007C0008871387134B007800C800D0075D
:106128004C046C07DC0564004A014B009001000038
:10613800000000009001000000000000E8030000DB
:106148000000000000000000000000000000000047
:10615800204E0000A086010002061001140046002F
:10616800DC05010501010100D430000005010A0029
:10617800E803000010270000000000000A000000EB
:1061880000000000640000000000000000000000A3
:1061980000000000000000001027000050C30000AD
:1061A800B400D007D0070000B400B700BA00BD00A3
:1061B800C100C400C700CA00CD00D000D300D6007B
:1061C800D900DC00E000E300E600E900EC00EF00A5
:1061D800F200F500F700FA00FD00000103010601D6
:1061E80009010B010E0111011301160119011B010F
:1061F8001E0120012301250128012A012C012F015C
:1062080031013301350138013A013C013E014001B9
:10621800420144014601470149014B014D014E012C
:1062280050015101530154015601570158015A01B7
:106238005B015C015D015E015F016001610162015A
:106248006301630164016501650166016601670117
:1062580067016701680168016801680168016801F0
:1062680068016801680167016701670166016601E5
:1062780065016501640163016301620161016001F7
:106288005F015E015D015C015B015A015801570124
:10629800560154015301510150014E014D014B016A
:1062A8004901470146014401420140013E013C01C8
:1062B8003A0138013501330131012F012C012A013E
:1062C80028012501230120011E011B0119011601C6
:1062D800130111010E010B0109010601030100015F
:1062E800FD00FA00F700F500F200EF00EC00E9000D
:1062F800E600E300E000DC00D900D600D300D000BF
:10630800CD00CA00C700C400C100BD00BA00B70074
:10631800B400B100AE00AB00A700A400A1009E002D
:106328009B009800950092008F008C0088008500E3
:1063380082007F007C0079007600730071006E0097
:106348006B006800650062005F005D005A0057003E
:10635800550052004F004D004A00480045004300D8
:1063680040003E003C003900370035003300300063
:106378002E002C002A0028002600240022002100DC
:106388001F001D001B001A0018001700150014003C
:106398001200110010000E000D000C000B000A0086
:1063A80009000800070006000500050004000300B6
:1063B80003000200020001000100010000000000CB
:1063C80000000000000000000000000000000100C4
:1063D80001000100020002000300030004000500A0
:1063E800050006000700080009000A000B000C0061
:1063F8000D000E0010001100120014001500170007
:1064080018001A001B001D001F0021002200240094
:10641800260028002A002C002E003000330035000A
:10642800370039003C003E0040004300450048006A
:106438004A004D004F005200550057005A005D00B9
:106448005F006200650068006B006E0071007300F9
:10645800760079007C007F008200850088008C002F
:106468008F009200950098009B009E00A100A40058
:10647800A700AB00AE00B1004B001E030300641977
:1064880000000000010000000000000032000000D1
:1064980000000000000000000000000000000000F4
:1064A8001027000050C3000002004B006E00D00708
:1064B80064000500E8030614013278004B0001006F
:1064C8005A005A001E000201FA000000204E200067
:0864D80050C3110700127A0005
:107BE00047455052435F34494E315F46343231008D
:107BF0000000000000000000000000000000000085
:04000005080040D5DA
:00000001FF
