:020000040800F2
:10000000001000200D0100085501000855010008EE
:1000100055010008550100085501000800000000C6
:100020000000000000000000000000005501000872
:1000300055010008000000005501000855010008A6
:100040005501000855010008550100085501000838
:100050005501000855010008550100085501000828
:100060000000000055010008550100085501000876
:100070005501000855010008550100080000000066
:100080005501000855010008000000005501000856
:1000900055010008550100085501000855010008E8
:1000A00055010008550100085501000855010008D8
:1000B00055010008000000000000000000000000E2
:0C00C00055010008000000005501000878
:1000CC0010B5054C237833B9044B13B10448AFF386
:1000DC0000800123237010BD1402002000000000DA
:1000EC00E00C000808B5034B1BB103490348AFF300
:1000FC00008008BD0000000018020020E00C000881
:10010C00002103E00B4B5B58435004310A480B4B66
:10011C0042189A42F6D30A4A02E0002342F8043B02
:10012C00084B9A42F9D300F0DFFA00F089FD00F099
:10013C000DFB7047000D000800000020000000209F
:10014C000000002030020020FEE70000114B1A686E
:10015C0042F001021A601A689207FCD55A686FF3D4
:10016C0001025A605A6812F00C0FC2F38101F9D1E6
:10017C001A6822F0867222F480321A6041F61072EC
:10018C005960DA624FF480121A634FF41F029A60BE
:10019C00704700BF00100240030C03F1804303F5CD
:1001AC00043300F01F001A68012303FA00F030EA50
:1001BC0002030CBF012000207047030C03F18043A5
:1001CC0003F50433012200F01F0002FA00F0914203
:1001DC001A680CBF104322EA000018607047000038
:1001EC0004281FD8DFE800F003090E1319000E4B8A
:1001FC001A6861F300021A6070470B4B1A6861F3BE
:10020C001042F8E7084B1A6861F31862F3E7064BE3
:10021C001A6A61F300021A627047034B5A6A61F35F
:10022C0000025A62704700BF00100240024B5A682D
:10023C0060F307125A60704700100240024B5A6874
:10024C0060F30A225A60704700100240024B5A6851
:10025C0060F3CD225A6070470010024010B51A4B63
:10026C005A6820B960F3104218485A6009E042F409
:10027C0080325A6001285A6821D16FF351421448D8
:10028C005A606FF41874A0F56E122244114CA242FD
:10029C0018D9114A02441148824294BF022200220A
:1002AC00586861F3954058605868C1F3011161F3C7
:1002BC005E705860D96A62F31A61D96210BD42F45B
:1002CC000032D1E70022EBE70010024000093D00AC
:1002DC0000127A00DEC810006BCA88FF7AE50700AE
:1002EC00024B5A6860F301025A60704700100240DA
:1002FC00024B5868C0F38100704700BF00100240E9
:10030C00044B5A6D01280CBF42F030026FF30512FA
:10031C005A65704700100240014BD860704700BF0F
:10032C0000200240084BDA68D10709D4DA6852077A
:10033C0008D4DB6813F0100F14BF022003207047A1
:10034C0000207047012070470020024010B5044681
:10035C00FFF7E8FF30B90CB9042010BDFFF7E2FF3E
:10036C00013CF7E7002C08BF0420F6E7034B044AD6
:10037C005A6002F188325A60704700BF0020024078
:10038C0023016745024A136943F0800313617047E8
:10039C000020024010B5094C236943F0020323618D
:1003AC006061236943F0400323614FF08040FFF705
:1003BC00CDFF23696FF34103236110BD0020024080
:1003CC0010B5074C236943F00103236101604FF41E
:1003DC008010FFF7BBFF23696FF30003236110BD8F
:1003EC00002002402DE9F0410C880025032601274E
:1003FC000CB9BDE8F081E30735D51FFA85FE02681C
:10040C004FEA4E0C06FA0CF322EA030202608A79D8
:10041C00D0F8008002FA0CF242EA0802026042684C
:10042C0007FA0EF822EA080242600A79D0F8048032
:10043C0002FA0EF242EA08024260826822EA0302E1
:10044C008260CA79D0F808E002FA0CF242EA0E0295
:10045C008260C26822EA0303C3604B79C26803FA64
:10046C000CF31343C36064080135C1E74FF6FF7208
:10047C004FF08073C0E9002370472DE9F84342EA3E
:10048C0001039B0705460E46144626D14FEA9108F8
:10049C00FFF76CFFC4F3090313B92046FFF77AFF8B
:1004AC0005EB88082F46A4EB050947450BD1FFF750
:1004BC0069FF32462146284600F0E6FBB0FA80F090
:1004CC004009BDE8F883396809EB0700FFF778FFAE
:1004DC000320FFF721FF0437E7E70020F1E700F0E6
:1004EC00E3BB0000114B1B78012B03D0104B0022F7
:1004FC001A8070470F4A136803F16043B3F5803FCD
:10050C00F4D8536803F17843A3F58053B3F5802FE7
:10051C00ECD872B6084B19686FF300011960D2E978
:10052C0000329D4683F3088810477047007C000812
:10053C000000002000100008000400404FF0904222
:10054C00116821F040411160D36823F0404343EA25
:10055C008073D36070470120FFF7F0BF70B514486B
:10056C00ADF5806DFFF718FE01281ED1114CA37854
:10057C00112B1AD0013BDBB2FD2B16D84FF4806245
:10058C002146684600F090FB0B4E11238DF802308B
:10059C006D46224628464FF4807104F58074FFF7AF
:1005AC006CFFB44205F58075F3D10DF5806D70BD0F
:1005BC001C002400007C0008008000080549064B44
:1005CC004A6A92B25A804B6A9B1A9BB29842FAD8EA
:1005DC00704700BF00040040000000204FF0904323
:1005EC004FF400429A611A6822F0404242F0804275
:1005FC001A605A6822F400425A60034B1B7913B1FB
:10060C003420FFF7DBBF704700000020F8B54FF037
:10061C0090464FF400470546B7623420FFF7CEFFF3
:10062C000824EB074CBFB761B7623420013CFFF7DD
:10063C00C5FF14F0FF044FEA5505F2D14FF090437B
:10064C004FF400429A61F8BD10B50446FFF7C6FF9F
:10065C002046FFF7DBFFBDE81040FFF77CBF000032
:10066C0008B53020FFF7F0FF014B00221A8008BDBF
:10067C000000002008B5C220FFF7E6FF024A1388ED
:10068C000133138008BD00BF0000002008B5C12055
:10069C00FFF7DAFF024A13880133138008BD00BF4D
:1006AC000000002038B504460D46FFF797FF25449F
:1006BC0014F8010BFFF7AAFF3420FFF77FFFAC42C1
:1006CC00F6D1BDE83840FFF746BF000008B5044836
:1006DC000921FFF7E7FF034B01221A7108BD00BF88
:1006EC00E80F00080000002070470023F0B5044616
:1006FC004AF201071846994200DCF0BDE55C08227D
:10070C0085EA000616F0010F4FEA500018BF78403A
:10071C0002F1FF3218BF80B212F0FF024FEA55050A
:10072C00EED10133E7E7000010B5074C0146601D20
:10073C00FFF7DBFF21448A794B7943EA02231B1A2A
:10074C005842584110BD00BF000000202DE98048E0
:10075C00B94B85B040F2531200AF1A60FFF7F6FCAC
:10076C0001210020FFF73CFD0120FFF715FD0128BA
:10077C000446F9D11D210020FFF770FD214602200F
:10078C00FFF72EFD1920FFF707FD01280446F9D1CC
:10079C000020FFF74BFD0020FFF758FD0020FFF76E
:1007AC004DFD2046FFF7ACFD0220FFF799FDFFF74A
:1007BC009FFD02280446FAD10020FFF7A1FD9F48B7
:1007CC000121FFF7FAFC9E4B9E4877229A624FF666
:1007DC00FF72DA621A6842F001021A601A686FF34B
:1007EC0009221A601A686FF306121A605A6942F0ED
:1007FC0001025A610121FFF7E0FC01219248FFF749
:10080C00DCFC07F10800FFF731FE4FF080734FF46A
:10081C000040C7E9020307F108014FF09040FFF7D1
:10082C00E1FD2046FFF78AFE4FF4FA70FFF7C6FE93
:10083C00002425464FF09046336919045CBF0135FE
:10084C00ADB20A20FFF7BAFEB5F5E17F88BF4FF4D1
:10085C007A640134B4F57A6FEEDBB5F5E17F06D935
:10086C007A48FFF799FC012801D0FFF73BFE0120E5
:10087C00FFF764FE4FF4FA70FFF7A0FE04464FF04A
:10088C00904633691A0458BF01354FF00A0058BF1F
:10089C00ADB2FFF793FE013CF3D1C5B12046FFF793
:1008AC004DFE4FF4FA70FFF789FE05464FF0904667
:1008BC0033691B0458BF01344FF00A0058BFA4B26F
:1008CC00FFF77CFE013DF3D10CB1FFF70BFE0120CD
:1008DC00FFF734FEFFF742FE594E5D4C4FF0000B14
:1008EC004FF481725946601D84F807B100F0EAF9A3
:1008FC00FFF731FE04F10509D846002384F80831CE
:10090C00726A92B262804FF0904144F620600B699B
:10091C001D0445D5726A94F8071192B262804FF0AB
:10092C0090452B69180449D41A20FFF747FE2B6910
:10093C0013F400433BD14FF0904A34207B60FFF717
:10094C003DFEDAF810507B6894F80821C5F3C035E9
:10095C009D4015430133EDB2082B84F80851ECD1BE
:10096C00FFF72CFEDAF810301B0420D5012384F895
:10097C00073194F80931002B4AD0B4F80A3102330C
:10098C00984527D008F1010889F800501FFA88F81B
:10099C000BF1010BBBF5817F09F10109ADD115E01C
:1009AC00736A9B1A9BB28342B1D96523238094F856
:1009BC0007315BB923880133238022E0736A9B1AC9
:1009CC009BB2B3F5827FACD90029AAD094F8093137
:1009DC00002B43D0B4F80A512846FFF7A5FE40B3CC
:1009EC004FF4807200211B4800F06CF91A492A461A
:1009FC0001F2071000F058F9FFF732FE002384F8DB
:100A0C0009312388642B7FF668AFFFF76BFD64E731
:100A1C00736A62889B1A9BB2FA2B1FD840F201139F
:100A2C009B4508BF238889F8005004BF14332380EA
:100A3C00AEE7FFF71FFEE4E70020024001001C00B8
:100A4C000004004012001400110014001C002400CB
:100A5C00000000200C01002005000020637D60795F
:100A6C007D2B0AD1637B0D2BCBD1A37B422BC8D121
:100A7C00FFF72CFE00236376C3E7637E7D2B05D145
:100A8C00637C0D2B02D1A37C422BF1D094F82D303A
:100A9C007D2B07D194F825300D2B03D194F82630FB
:100AAC00422BE5D058B9E279A3791343227A134348
:100ABC0001D165232380C120FFF7C6FD7AE7012809
:100ACC001ED10220FFF730FE0028B2D0D4F80C2241
:100ADC00574B9A4202D8FFF7D9FD92E7554BB4F821
:100AEC000A119A4204D1022984BF112384F80E31D1
:100AFC005148FFF7C2FC0028EDD0FFF7B1FD80E7AD
:100B0C00FF2821D10420FFF70FFE002891D00023ED
:100B1C002380B4F807305BBA9BB2202BC4F80C329C
:100B2C0003D1444BC4F80C32E7E7212B01D1434BE2
:100B3C00F8E7222B02D1D4F81032F3E7B3F5806F2B
:100B4C00C9D303F10063EDE7FE2813D10420FFF7AE
:100B5C00EBFD00283FF46DAFE379012B14BF237A32
:100B6C004FF48073A4F80A31012384F80931FFF79C
:100B7C00F2FC46E7FD2809D10220FFF7D5FD00283D
:100B8C003FF457AFC120FFF75FFD3AE702280AD1C7
:100B9C00FFF7CAFD00283FF44CAFD4F80C22244BCD
:100BAC009A4298D9A9E7032885D10220E846FFF795
:100BBC00BBFD18B9FFF75EFDC54622E7D4F80CA2C1
:100BCC00BAF1000F02D1FFF761FDF5E7A579002D11
:100BDC0008BF4FF4807505F10A0323F00703ADEB52
:100BEC00030D05F103094A460021684600F06AF836
:100BFC002A4651466846FFF772FC29466846FFF7BD
:100C0C0074FD6B1C0DF80500000A0DF80300AB1CFD
:100C1C0030220DF8032049466846FFF743FDD4F80F
:100C2C000C322B44C4F810320023C4F80C32C3E746
:100C3C00FF0F0008007C00080C010020E07B00087E
:100C4C0070B50D4D0D4C641BA4100026A64209D1A5
:100C5C000B4D0C4C00F03EF8641BA4100026A64271
:100C6C0005D170BD55F8043B98470136EEE755F8B1
:100C7C00043B98470136F2E7F80C0008F80C000822
:100C8C00F80C0008FC0C000810B501390244904225
:100C9C0001D1002005E0037811F8014FA34201D0E7
:100CAC00181B10BD0130F2E70A44914200F1FF33EA
:100CBC0000D1704710B511F8014B03F8014F914268
:100CCC00F9D110BD02440346934200D1704703F89A
:100CDC00011BF9E7F8B500BFF8BC08BC9E4670478D
:0C0CEC00F8B500BFF8BC08BC9E4670477D
:040CF800F1000008FF
:040CFC00CD0000081F
:100FE000DAE32559D963B84E3437310F1F060602AC
:040FF00030000000CD
:040000050800010DE1
:00000001FF
