:020000040800F2
:10000000001000200D0100085501000855010008EE
:1000100055010008550100085501000800000000C6
:100020000000000000000000000000005501000872
:1000300055010008000000005501000855010008A6
:100040005501000855010008550100085501000838
:100050005501000855010008550100085501000828
:100060000000000055010008550100085501000876
:100070005501000855010008550100080000000066
:100080005501000855010008000000005501000856
:1000900055010008550100085501000855010008E8
:1000A00055010008550100085501000855010008D8
:1000B00055010008000000000000000000000000E2
:0C00C00055010008000000005501000878
:1000CC0010B5054C237833B9044B13B10448AFF386
:1000DC0000800123237010BD1402002000000000DA
:1000EC00D80C000808B5034B1BB103490348AFF308
:1000FC00008008BD0000000018020020D80C000889
:10010C00002103E00B4B5B58435004310A480B4B66
:10011C0042189A42F6D30A4A02E0002342F8043B02
:10012C00084B9A42F9D300F0DFFA00F085FD00F09D
:10013C000DFB7047F80C00080000002000000020A8
:10014C000000002030020020FEE70000114B1A686E
:10015C0042F001021A601A689207FCD55A686FF3D4
:10016C0001025A605A6812F00C0FC2F38101F9D1E6
:10017C001A6822F0867222F480321A6041F61072EC
:10018C005960DA624FF480121A634FF41F029A60BE
:10019C00704700BF00100240030C03F1804303F5CD
:1001AC00043300F01F001A68012303FA00F030EA50
:1001BC0002030CBF012000207047030C03F18043A5
:1001CC0003F50433012200F01F0002FA00F0914203
:1001DC001A680CBF104322EA000018607047000038
:1001EC0004281FD8DFE800F003090E1319000E4B8A
:1001FC001A6861F300021A6070470B4B1A6861F3BE
:10020C001042F8E7084B1A6861F31862F3E7064BE3
:10021C001A6A61F300021A627047034B5A6A61F35F
:10022C0000025A62704700BF00100240024B5A682D
:10023C0060F307125A60704700100240024B5A6874
:10024C0060F30A225A60704700100240024B5A6851
:10025C0060F3CD225A6070470010024010B51A4B63
:10026C005A6820B960F3104218485A6009E042F409
:10027C0080325A6001285A6821D16FF351421448D8
:10028C005A606FF41874A0F56E122244114CA242FD
:10029C0018D9114A02441148824294BF022200220A
:1002AC00586861F3954058605868C1F3011161F3C7
:1002BC005E705860D96A62F31A61D96210BD42F45B
:1002CC000032D1E70022EBE70010024000093D00AC
:1002DC0000127A00DEC810006BCA88FF7AE50700AE
:1002EC00024B5A6860F301025A60704700100240DA
:1002FC00024B5868C0F38100704700BF00100240E9
:10030C00044B5A6D01280CBF42F030026FF30512FA
:10031C005A65704700100240014BD860704700BF0F
:10032C0000200240084BDA68D10709D4DA6852077A
:10033C0008D4DB6813F0100F14BF022003207047A1
:10034C0000207047012070470020024010B5044681
:10035C00FFF7E8FF30B90CB9042010BDFFF7E2FF3E
:10036C00013CF7E7002C08BF0420F6E7034B044AD6
:10037C005A6002F188325A60704700BF0020024078
:10038C0023016745024A136943F0800313617047E8
:10039C000020024010B5094C236943F0020323618D
:1003AC006061236943F0400323614FF08040FFF705
:1003BC00CDFF23696FF34103236110BD0020024080
:1003CC0010B5074C236943F00103236101604FF41E
:1003DC008010FFF7BBFF23696FF30003236110BD8F
:1003EC00002002402DE9F0410C880025032601274E
:1003FC000CB9BDE8F081E30735D51FFA85FE02681C
:10040C004FEA4E0C06FA0CF322EA030202608A79D8
:10041C00D0F8008002FA0CF242EA0802026042684C
:10042C0007FA0EF822EA080242600A79D0F8048032
:10043C0002FA0EF242EA08024260826822EA0302E1
:10044C008260CA79D0F808E002FA0CF242EA0E0295
:10045C008260C26822EA0303C3604B79C26803FA64
:10046C000CF31343C36064080135C1E74FF6FF7208
:10047C004FF08073C0E9002370472DE9F84342EA3E
:10048C0001039B0705460E46144626D14FEA9108F8
:10049C00FFF76CFFC4F3090313B92046FFF77AFF8B
:1004AC0005EB88082F46A4EB050947450BD1FFF750
:1004BC0069FF32462146284600F0E2FBB0FA80F094
:1004CC004009BDE8F883396809EB0700FFF778FFAE
:1004DC000320FFF721FF0437E7E70020F1E700F0E6
:1004EC00DFBB0000114B1B78012B03D0104B0022FB
:1004FC001A8070470F4A136803F16043B3F5803FCD
:10050C00F4D8536803F17843A3F58053B3F5802FE7
:10051C00ECD872B6084B19686FF300011960D2E978
:10052C0000329D4683F3088810477047007C000812
:10053C00000000200010000800040040054A11686B
:10054C0021F440711160D36823F4407343EA002313
:10055C00D3607047000400480120FFF7EFBF000094
:10056C0070B51448ADF5806DFFF716FE01281ED14D
:10057C00114CA378112B1AD0013BDBB2FD2B16D8F2
:10058C004FF480622146684600F08AFB0B4E112323
:10059C008DF802306D46224628464FF4807104F5E2
:1005AC008074FFF76AFFB44205F58075F3D10DF541
:1005BC00806D70BD1C002400007C000800800008C9
:1005CC000549064B4A6A92B25A804B6A9B1A9BB2F7
:1005DC009842FAD8704700BF000400400000002089
:1005EC00094B10229A611A6822F4407242F480720C
:1005FC001A605A6822F010025A60044B1B7913B12E
:10060C003420FFF7DDBF70470004004800000020D5
:10061C00F8B50C4E10270546B7623420FFF7D0FF13
:10062C000824EB074CBFB761B7623420013CFFF7DD
:10063C00C7FF14F0FF044FEA5505F2D1014B10220D
:10064C009A61F8BD0004004810B50446FFF7C8FFD6
:10065C002046FFF7DDFFBDE81040FFF77DBF00002F
:10066C0008B53020FFF7F0FF014B00221A8008BDBF
:10067C000000002008B5C220FFF7E6FF024A1388ED
:10068C000133138008BD00BF0000002008B5C12055
:10069C00FFF7DAFF024A13880133138008BD00BF4D
:1006AC000000002038B504460D46FFF799FF25449D
:1006BC0014F8010BFFF7ACFF3420FFF781FFAC42BD
:1006CC00F6D1BDE83840FFF747BF000008B5044835
:1006DC000921FFF7E7FF034B01221A7108BD00BF88
:1006EC00E80F00080000002070470023F0B5044616
:1006FC004AF201071846994200DCF0BDE55C08227D
:10070C0085EA000616F0010F4FEA500018BF78403A
:10071C0002F1FF3218BF80B212F0FF024FEA55050A
:10072C00EED10133E7E7000010B5074C0146601D20
:10073C00FFF7DBFF21448A794B7943EA02231B1A2A
:10074C005842584110BD00BF000000202DE98048E0
:10075C00B64B85B040F2531200AF1A60FFF7F6FCAF
:10076C0001210020FFF73CFD0120FFF715FD0128BA
:10077C000446F9D11D210020FFF770FD214602200F
:10078C00FFF72EFD1920FFF707FD01280446F9D1CC
:10079C000020FFF74BFD0020FFF758FD0020FFF76E
:1007AC004DFD2046FFF7ACFD0220FFF799FDFFF74A
:1007BC009FFD02280446FAD10020FFF7A1FD9C48BA
:1007CC009C4E0121FFF7F9FC9B4B9C4877229A62C7
:1007DC004FF6FF72DA621A6842F001021A601A6868
:1007EC006FF309221A601A686FF306121A605A69BD
:1007FC0042F001025A610121FFF7DFFC0121904810
:10080C00FFF7DBFC07F10800FFF730FE4FF08073B9
:10081C001020C7E9020307F108018648FFF7E2FD43
:10082C002046FFF78BFE4FF4FA70FFF7C9FE002449
:10083C0025463369D9065CBF0135ADB20A20FFF7F6
:10084C00BFFEB5F5E17F88BF4FF47A640134B4F58F
:10085C007A6FEEDBB5F5E17F06D97A48FFF79CFCA1
:10086C00012801D0FFF73EFE0120FFF767FE4FF491
:10087C00FA70FFF7A5FE6F4E04463369DA0658BFCF
:10088C0001354FF00A0058BFADB2FFF799FE013C9D
:10089C00F3D1BDB12046FFF751FE4FF4FA70FFF7CC
:1008AC008FFE644E05463369DB0658BF01344FF0AA
:1008BC000A0058BFA4B2FFF783FE013DF3D10CB17F
:1008CC00FFF710FE0120FFF739FEFFF749FE5A4EE5
:1008DC005D4C4FF0000B4FF481725946601D84F84B
:1008EC0007B100F0EBF9FFF737FE04F10509D84624
:1008FC00002384F80831726A4E4992B2628044F641
:10090C0020600B69DD0644D5726A94F80711494DD5
:10091C0092B262802B69D80649D41A20FFF750FE98
:10092C002B6913F010033BD1DFF808A17B60342056
:10093C00FFF746FEDAF810507B6894F80821C5F3EF
:10094C0000159D4015430133EDB2082B84F8085176
:10095C00ECD1FFF735FEDAF81030DB0620D5012399
:10096C0084F8073194F80931002B4AD0B4F80A31D5
:10097C000233984527D008F1010889F800501FFA76
:10098C0088F80BF1010BBBF5817F09F10109AFD19F
:10099C0015E0736A9B1A9BB28342B2D965232380FC
:1009AC0094F807315BB923880133238022E0736A02
:1009BC009B1A9BB2B3F5827FACD90029AAD094F8CC
:1009CC000931002B46D0B4F80A512846FFF7ACFE8B
:1009DC0040B34FF4807200211C4800F06FF91C49A1
:1009EC002A4601F2071000F05BF9FFF739FE0023ED
:1009FC0084F809312388642B7FF66AAFFFF772FD08
:100A0C0066E7736A62889B1A9BB2FA2B22D840F273
:100A1C0001139B4508BF238889F8005004BF143389
:100A2C002380AEE7FFF726FEE4E700BF002002407C
:100A3C0001001C00000400480004004012001400D7
:100A4C00110014001C002400000000200C010020E8
:100A5C0005000020637D60797D2B0AD1637B0D2B13
:100A6C00C8D1A37B422BC5D1FFF730FE00236376A0
:100A7C00C0E7637E7D2B05D1637C0D2B02D1A37C5B
:100A8C00422BF1D094F82D307D2B07D194F82530E2
:100A9C000D2B03D194F82630422BE5D058B9E279CE
:100AAC00A3791343227A134301D165232380C120F8
:100ABC00FFF7CAFD77E701281ED10220FFF734FEAD
:100ACC000028AFD0D4F80C22574B9A4202D8FFF72B
:100ADC00DDFD8FE7554BB4F80A119A4204D1022977
:100AEC0084BF112384F80E315148FFF7C6FC00284F
:100AFC00EDD0FFF7B5FD7DE7FF2821D10420FFF7EE
:100B0C0013FE00288ED000232380B4F807305BBA84
:100B1C009BB2202BC4F80C3203D1444BC4F80C32DA
:100B2C00E7E7212B01D1434BF8E7222B02D1D4F874
:100B3C001032F3E7B3F5806FC9D303F10063EDE72F
:100B4C00FE2813D10420FFF7EFFD00283FF46AAF15
:100B5C00E379012B14BF237A4FF48073A4F80A3184
:100B6C00012384F80931FFF7F7FC43E7FD2809D18D
:100B7C000220FFF7D9FD00283FF454AFC120FFF746
:100B8C0063FD37E702280AD1FFF7CEFD00283FF4BA
:100B9C0049AFD4F80C22244B9A4298D9A9E70328E0
:100BAC0085D10220E846FFF7BFFD18B9FFF762FDBB
:100BBC00C5461FE7D4F80CA2BAF1000F02D1FFF71B
:100BCC0065FDF5E7A579002D08BF4FF4807505F19B
:100BDC000A0323F00703ADEB030D05F103094A46A5
:100BEC000021684600F06AF82A4651466846FFF72D
:100BFC0076FC29466846FFF778FD6B1C0DF805005E
:100C0C00000A0DF80300AB1C30220DF803204946F6
:100C1C006846FFF747FDD4F80C322B44C4F8103269
:100C2C000023C4F80C32C3E7FF0F0008007C000857
:100C3C000C010020E07B000870B50D4D0D4C641BC1
:100C4C00A4100026A64209D10B4D0C4C00F03EF826
:100C5C00641BA4100026A64205D170BD55F8043BB8
:100C6C0098470136EEE755F8043B98470136F2E712
:100C7C00F00C0008F00C0008F00C0008F40C000854
:100C8C0010B501390244904201D1002005E00378EF
:100C9C0011F8014FA34201D0181B10BD0130F2E72F
:100CAC000A44914200F1FF3300D1704710B511F89E
:100CBC00014B03F8014F9142F9D110BD0244034698
:100CCC00934200D1704703F8011BF9E7F8B500BF58
:100CDC00F8BC08BC9E467047F8B500BFF8BC08BC11
:040CEC009E46704769
:040CF000F100000807
:040CF400CD00000827
:100FE000DAE32559D963B84E343731141F060602A7
:040FF00030000000CD
:040000050800010DE1
:00000001FF
